{
  "_format": "hh-sol-artifact-1",
  "contractName": "ValidatorConsensus",
  "sourceName": "src/ValidatorConsensus.sol",
  "abi": [
    {
      "inputs": [
        {
          "internalType": "address",
          "name": "target",
          "type": "address"
        }
      ],
      "name": "AddressEmptyCode",
      "type": "error"
    },
    {
      "inputs": [
        {
          "internalType": "address",
          "name": "implementation",
          "type": "address"
        }
      ],
      "name": "ERC1967InvalidImplementation",
      "type": "error"
    },
    {
      "inputs": [],
      "name": "ERC1967NonPayable",
      "type": "error"
    },
    {
      "inputs": [],
      "name": "FailedCall",
      "type": "error"
    },
    {
      "inputs": [],
      "name": "InvalidInitialization",
      "type": "error"
    },
    {
      "inputs": [],
      "name": "NotInitializing",
      "type": "error"
    },
    {
      "inputs": [
        {
          "internalType": "address",
          "name": "owner",
          "type": "address"
        }
      ],
      "name": "OwnableInvalidOwner",
      "type": "error"
    },
    {
      "inputs": [
        {
          "internalType": "address",
          "name": "account",
          "type": "address"
        }
      ],
      "name": "OwnableUnauthorizedAccount",
      "type": "error"
    },
    {
      "inputs": [],
      "name": "UUPSUnauthorizedCallContext",
      "type": "error"
    },
    {
      "inputs": [
        {
          "internalType": "bytes32",
          "name": "slot",
          "type": "bytes32"
        }
      ],
      "name": "UUPSUnsupportedProxiableUUID",
      "type": "error"
    },
    {
      "anonymous": false,
      "inputs": [
        {
          "indexed": true,
          "internalType": "uint64",
          "name": "jobId",
          "type": "uint64"
        },
        {
          "indexed": false,
          "internalType": "bool",
          "name": "approved",
          "type": "bool"
        }
      ],
      "name": "ConsensusReached",
      "type": "event"
    },
    {
      "anonymous": false,
      "inputs": [
        {
          "indexed": false,
          "internalType": "uint64",
          "name": "version",
          "type": "uint64"
        }
      ],
      "name": "Initialized",
      "type": "event"
    },
    {
      "anonymous": false,
      "inputs": [
        {
          "indexed": true,
          "internalType": "address",
          "name": "previousOwner",
          "type": "address"
        },
        {
          "indexed": true,
          "internalType": "address",
          "name": "newOwner",
          "type": "address"
        }
      ],
      "name": "OwnershipTransferred",
      "type": "event"
    },
    {
      "anonymous": false,
      "inputs": [
        {
          "indexed": true,
          "internalType": "address",
          "name": "validator",
          "type": "address"
        },
        {
          "indexed": false,
          "internalType": "uint256",
          "name": "amount",
          "type": "uint256"
        }
      ],
      "name": "Staked",
      "type": "event"
    },
    {
      "anonymous": false,
      "inputs": [
        {
          "indexed": true,
          "internalType": "address",
          "name": "validator",
          "type": "address"
        },
        {
          "indexed": false,
          "internalType": "uint256",
          "name": "amount",
          "type": "uint256"
        }
      ],
      "name": "Unstaked",
      "type": "event"
    },
    {
      "anonymous": false,
      "inputs": [
        {
          "indexed": true,
          "internalType": "address",
          "name": "implementation",
          "type": "address"
        }
      ],
      "name": "Upgraded",
      "type": "event"
    },
    {
      "anonymous": false,
      "inputs": [
        {
          "indexed": true,
          "internalType": "uint64",
          "name": "jobId",
          "type": "uint64"
        }
      ],
      "name": "ValidationRequested",
      "type": "event"
    },
    {
      "anonymous": false,
      "inputs": [
        {
          "indexed": true,
          "internalType": "uint64",
          "name": "jobId",
          "type": "uint64"
        },
        {
          "indexed": true,
          "internalType": "address",
          "name": "validator",
          "type": "address"
        },
        {
          "indexed": false,
          "internalType": "bool",
          "name": "approve",
          "type": "bool"
        }
      ],
      "name": "Voted",
      "type": "event"
    },
    {
      "inputs": [],
      "name": "UPGRADE_INTERFACE_VERSION",
      "outputs": [
        {
          "internalType": "string",
          "name": "",
          "type": "string"
        }
      ],
      "stateMutability": "view",
      "type": "function"
    },
    {
      "inputs": [],
      "name": "commerce",
      "outputs": [
        {
          "internalType": "contract IAgenticCommerce",
          "name": "",
          "type": "address"
        }
      ],
      "stateMutability": "view",
      "type": "function"
    },
    {
      "inputs": [],
      "name": "depositRewards",
      "outputs": [],
      "stateMutability": "payable",
      "type": "function"
    },
    {
      "inputs": [
        {
          "internalType": "uint64",
          "name": "jobId",
          "type": "uint64"
        },
        {
          "internalType": "address",
          "name": "validator",
          "type": "address"
        }
      ],
      "name": "hasVoted",
      "outputs": [
        {
          "internalType": "bool",
          "name": "",
          "type": "bool"
        }
      ],
      "stateMutability": "view",
      "type": "function"
    },
    {
      "inputs": [
        {
          "internalType": "address",
          "name": "_commerce",
          "type": "address"
        },
        {
          "internalType": "uint256",
          "name": "_minStake",
          "type": "uint256"
        }
      ],
      "name": "initialize",
      "outputs": [],
      "stateMutability": "nonpayable",
      "type": "function"
    },
    {
      "inputs": [],
      "name": "minStake",
      "outputs": [
        {
          "internalType": "uint256",
          "name": "",
          "type": "uint256"
        }
      ],
      "stateMutability": "view",
      "type": "function"
    },
    {
      "inputs": [],
      "name": "owner",
      "outputs": [
        {
          "internalType": "address",
          "name": "",
          "type": "address"
        }
      ],
      "stateMutability": "view",
      "type": "function"
    },
    {
      "inputs": [],
      "name": "proxiableUUID",
      "outputs": [
        {
          "internalType": "bytes32",
          "name": "",
          "type": "bytes32"
        }
      ],
      "stateMutability": "view",
      "type": "function"
    },
    {
      "inputs": [],
      "name": "renounceOwnership",
      "outputs": [],
      "stateMutability": "nonpayable",
      "type": "function"
    },
    {
      "inputs": [
        {
          "internalType": "uint64",
          "name": "jobId",
          "type": "uint64"
        }
      ],
      "name": "requestValidation",
      "outputs": [],
      "stateMutability": "nonpayable",
      "type": "function"
    },
    {
      "inputs": [],
      "name": "rewardPool",
      "outputs": [
        {
          "internalType": "uint256",
          "name": "",
          "type": "uint256"
        }
      ],
      "stateMutability": "view",
      "type": "function"
    },
    {
      "inputs": [
        {
          "internalType": "uint64",
          "name": "jobId",
          "type": "uint64"
        }
      ],
      "name": "roundStatus",
      "outputs": [
        {
          "internalType": "bool",
          "name": "open",
          "type": "bool"
        },
        {
          "internalType": "uint256",
          "name": "approvals",
          "type": "uint256"
        },
        {
          "internalType": "uint256",
          "name": "rejections",
          "type": "uint256"
        }
      ],
      "stateMutability": "view",
      "type": "function"
    },
    {
      "inputs": [
        {
          "internalType": "address",
          "name": "_commerce",
          "type": "address"
        }
      ],
      "name": "setCommerce",
      "outputs": [],
      "stateMutability": "nonpayable",
      "type": "function"
    },
    {
      "inputs": [
        {
          "internalType": "uint256",
          "name": "_minStake",
          "type": "uint256"
        }
      ],
      "name": "setMinStake",
      "outputs": [],
      "stateMutability": "nonpayable",
      "type": "function"
    },
    {
      "inputs": [],
      "name": "stake",
      "outputs": [],
      "stateMutability": "payable",
      "type": "function"
    },
    {
      "inputs": [
        {
          "internalType": "address",
          "name": "",
          "type": "address"
        }
      ],
      "name": "staked",
      "outputs": [
        {
          "internalType": "uint256",
          "name": "",
          "type": "uint256"
        }
      ],
      "stateMutability": "view",
      "type": "function"
    },
    {
      "inputs": [
        {
          "internalType": "address",
          "name": "newOwner",
          "type": "address"
        }
      ],
      "name": "transferOwnership",
      "outputs": [],
      "stateMutability": "nonpayable",
      "type": "function"
    },
    {
      "inputs": [],
      "name": "unstake",
      "outputs": [],
      "stateMutability": "nonpayable",
      "type": "function"
    },
    {
      "inputs": [
        {
          "internalType": "address",
          "name": "newImplementation",
          "type": "address"
        },
        {
          "internalType": "bytes",
          "name": "data",
          "type": "bytes"
        }
      ],
      "name": "upgradeToAndCall",
      "outputs": [],
      "stateMutability": "payable",
      "type": "function"
    },
    {
      "inputs": [],
      "name": "validatorCount",
      "outputs": [
        {
          "internalType": "uint256",
          "name": "",
          "type": "uint256"
        }
      ],
      "stateMutability": "view",
      "type": "function"
    },
    {
      "inputs": [
        {
          "internalType": "uint256",
          "name": "",
          "type": "uint256"
        }
      ],
      "name": "validatorList",
      "outputs": [
        {
          "internalType": "address",
          "name": "",
          "type": "address"
        }
      ],
      "stateMutability": "view",
      "type": "function"
    },
    {
      "inputs": [
        {
          "internalType": "uint64",
          "name": "jobId",
          "type": "uint64"
        },
        {
          "internalType": "bool",
          "name": "approve",
          "type": "bool"
        }
      ],
      "name": "vote",
      "outputs": [],
      "stateMutability": "nonpayable",
      "type": "function"
    },
    {
      "stateMutability": "payable",
      "type": "receive"
    }
  ],
  "bytecode": "0x60a06040523073ffffffffffffffffffffffffffffffffffffffff1660809073ffffffffffffffffffffffffffffffffffffffff16815250348015610042575f80fd5b50608051612a5f6100695f395f818161130e01528181611363015261151d0152612a5f5ff3fe608060405260043610610138575f3560e01c8063715018a6116100aa578063ad3cb1cc1161006e578063ad3cb1cc146103a4578063b048e056146103ce578063c61ff6001461040a578063c7f2156014610446578063cd6dc6871461046e578063f2fde38b1461049657610156565b8063715018a6146102d65780638c80fd90146102ec5780638da5cb5b14610314578063912955fd1461033e57806398807d841461036857610156565b80633a4b66f1116100fc5780633a4b66f1146101f65780634612629d146102005780634f1ef286146102285780634f631dc41461024457806352d1902d1461028257806366666aa9146102ac57610156565b80630f43a6771461015a578063152111f7146101845780632761a48b1461018e5780632def6620146101b6578063375b3c0a146101cc57610156565b36610156573460025f82825461014e9190611e70565b925050819055005b5f80fd5b348015610165575f80fd5b5061016e6104be565b60405161017b9190611eb2565b60405180910390f35b61018c6104ca565b005b348015610199575f80fd5b506101b460048036038101906101af9190611f36565b6104e4565b005b3480156101c1575f80fd5b506101ca61052e565b005b3480156101d7575f80fd5b506101e0610867565b6040516101ed9190611eb2565b60405180910390f35b6101fe61086d565b005b34801561020b575f80fd5b5061022660048036038101906102219190611f9e565b6109fa565b005b610242600480360381019061023d9190612105565b610b2e565b005b34801561024f575f80fd5b5061026a60048036038101906102659190611f9e565b610b4d565b60405161027993929190612179565b60405180910390f35b34801561028d575f80fd5b50610296610ba0565b6040516102a391906121c6565b60405180910390f35b3480156102b7575f80fd5b506102c0610bd1565b6040516102cd9190611eb2565b60405180910390f35b3480156102e1575f80fd5b506102ea610bd7565b005b3480156102f7575f80fd5b50610312600480360381019061030d9190612209565b610bea565b005b34801561031f575f80fd5b50610328610bfc565b6040516103359190612243565b60405180910390f35b348015610349575f80fd5b50610352610c31565b60405161035f91906122b7565b60405180910390f35b348015610373575f80fd5b5061038e60048036038101906103899190611f36565b610c54565b60405161039b9190611eb2565b60405180910390f35b3480156103af575f80fd5b506103b8610c69565b6040516103c5919061234a565b60405180910390f35b3480156103d9575f80fd5b506103f460048036038101906103ef9190612209565b610ca2565b6040516104019190612243565b60405180910390f35b348015610415575f80fd5b50610430600480360381019061042b919061236a565b610cdd565b60405161043d91906123a8565b60405180910390f35b348015610451575f80fd5b5061046c600480360381019061046791906123eb565b610d56565b005b348015610479575f80fd5b50610494600480360381019061048f9190612429565b611039565b005b3480156104a1575f80fd5b506104bc60048036038101906104b79190611f36565b611201565b005b5f600380549050905090565b3460025f8282546104db9190611e70565b92505081905550565b6104ec611285565b805f806101000a81548173ffffffffffffffffffffffffffffffffffffffff021916908373ffffffffffffffffffffffffffffffffffffffff16021790555050565b5f60045f3373ffffffffffffffffffffffffffffffffffffffff1673ffffffffffffffffffffffffffffffffffffffff1681526020019081526020015f205490505f81116105b1576040517f08c379a00000000000000000000000000000000000000000000000000000000081526004016105a8906124b1565b60405180910390fd5b5f60045f3373ffffffffffffffffffffffffffffffffffffffff1673ffffffffffffffffffffffffffffffffffffffff1681526020019081526020015f20819055505f5b60038054905081101561076c573373ffffffffffffffffffffffffffffffffffffffff166003828154811061062d5761062c6124cf565b5b905f5260205f20015f9054906101000a900473ffffffffffffffffffffffffffffffffffffffff1673ffffffffffffffffffffffffffffffffffffffff160361075f576003600160038054905061068491906124fc565b81548110610695576106946124cf565b5b905f5260205f20015f9054906101000a900473ffffffffffffffffffffffffffffffffffffffff16600382815481106106d1576106d06124cf565b5b905f5260205f20015f6101000a81548173ffffffffffffffffffffffffffffffffffffffff021916908373ffffffffffffffffffffffffffffffffffffffff16021790555060038054806107285761072761252f565b5b600190038181905f5260205f20015f6101000a81549073ffffffffffffffffffffffffffffffffffffffff0219169055905561076c565b80806001019150506105f5565b505f3373ffffffffffffffffffffffffffffffffffffffff168260405161079290612589565b5f6040518083038185875af1925050503d805f81146107cc576040519150601f19603f3d011682016040523d82523d5f602084013e6107d1565b606091505b5050905080610815576040517f08c379a000000000000000000000000000000000000000000000000000000000815260040161080c906125e7565b60405180910390fd5b3373ffffffffffffffffffffffffffffffffffffffff167f0f5bb82176feb1b5e747e28471aa92156a04d9f3ab9f45f28e2d704232b93f758360405161085b9190611eb2565b60405180910390a25050565b60015481565b6001543410156108b2576040517f08c379a00000000000000000000000000000000000000000000000000000000081526004016108a99061264f565b60405180910390fd5b5f60045f3373ffffffffffffffffffffffffffffffffffffffff1673ffffffffffffffffffffffffffffffffffffffff1681526020019081526020015f20540361095757600333908060018154018082558091505060019003905f5260205f20015f9091909190916101000a81548173ffffffffffffffffffffffffffffffffffffffff021916908373ffffffffffffffffffffffffffffffffffffffff1602179055505b3460045f3373ffffffffffffffffffffffffffffffffffffffff1673ffffffffffffffffffffffffffffffffffffffff1681526020019081526020015f205f8282546109a39190611e70565b925050819055503373ffffffffffffffffffffffffffffffffffffffff167f9e71bc8eea02a63969f509818f2dafb9254532904319f9dbda79b67bd34a5f3d346040516109f09190611eb2565b60405180910390a2565b60055f8267ffffffffffffffff1667ffffffffffffffff1681526020019081526020015f205f015f9054906101000a900460ff1615610a6e576040517f08c379a0000000000000000000000000000000000000000000000000000000008152600401610a65906126b7565b60405180910390fd5b5f60038054905011610ab5576040517f08c379a0000000000000000000000000000000000000000000000000000000008152600401610aac9061271f565b60405180910390fd5b600160055f8367ffffffffffffffff1667ffffffffffffffff1681526020019081526020015f205f015f6101000a81548160ff0219169083151502179055508067ffffffffffffffff167f0f7c98c520b71007f18b52f598ef593e797a4bc062e3ce6e4e565edd2eabcf6160405160405180910390a250565b610b3661130c565b610b3f826113f2565b610b4982826113fd565b5050565b5f805f8060055f8667ffffffffffffffff1667ffffffffffffffff1681526020019081526020015f209050805f015f9054906101000a900460ff1681600101548260020154935093509350509193909250565b5f610ba961151b565b7f360894a13ba1a3210667c828492db98dca3e2076cc3735a920a3ca505d382bbc5f1b905090565b60025481565b610bdf611285565b610be85f6115a2565b565b610bf2611285565b8060018190555050565b5f80610c06611673565b9050805f015f9054906101000a900473ffffffffffffffffffffffffffffffffffffffff1691505090565b5f8054906101000a900473ffffffffffffffffffffffffffffffffffffffff1681565b6004602052805f5260405f205f915090505481565b6040518060400160405280600581526020017f352e302e3000000000000000000000000000000000000000000000000000000081525081565b60038181548110610cb1575f80fd5b905f5260205f20015f915054906101000a900473ffffffffffffffffffffffffffffffffffffffff1681565b5f60055f8467ffffffffffffffff1667ffffffffffffffff1681526020019081526020015f206003015f8373ffffffffffffffffffffffffffffffffffffffff1673ffffffffffffffffffffffffffffffffffffffff1681526020019081526020015f205f9054906101000a900460ff16905092915050565b5f60055f8467ffffffffffffffff1667ffffffffffffffff1681526020019081526020015f209050805f015f9054906101000a900460ff16610dcd576040517f08c379a0000000000000000000000000000000000000000000000000000000008152600401610dc490612787565b60405180910390fd5b60015460045f3373ffffffffffffffffffffffffffffffffffffffff1673ffffffffffffffffffffffffffffffffffffffff1681526020019081526020015f20541015610e4f576040517f08c379a0000000000000000000000000000000000000000000000000000000008152600401610e46906127ef565b60405180910390fd5b806003015f3373ffffffffffffffffffffffffffffffffffffffff1673ffffffffffffffffffffffffffffffffffffffff1681526020019081526020015f205f9054906101000a900460ff1615610edb576040517f08c379a0000000000000000000000000000000000000000000000000000000008152600401610ed290612857565b60405180910390fd5b6001816003015f3373ffffffffffffffffffffffffffffffffffffffff1673ffffffffffffffffffffffffffffffffffffffff1681526020019081526020015f205f6101000a81548160ff0219169083151502179055508115610fb857806001015f815480929190610f4c90612875565b91905055508060040133908060018154018082558091505060019003905f5260205f20015f9091909190916101000a81548173ffffffffffffffffffffffffffffffffffffffff021916908373ffffffffffffffffffffffffffffffffffffffff160217905550610fd2565b806002015f815480929190610fcc90612875565b91905055505b3373ffffffffffffffffffffffffffffffffffffffff168367ffffffffffffffff167f124fc85f0c5f8fa9252653b49b8fb9b6602cfd207a1a4890631ca33dc8f001618460405161102391906123a8565b60405180910390a36110348361169a565b505050565b5f6110426118e5565b90505f815f0160089054906101000a900460ff161590505f825f015f9054906101000a900467ffffffffffffffff1690505f808267ffffffffffffffff1614801561108a5750825b90505f60018367ffffffffffffffff161480156110bd57505f3073ffffffffffffffffffffffffffffffffffffffff163b145b9050811580156110cb575080155b15611102576040517ff92ee8a900000000000000000000000000000000000000000000000000000000815260040160405180910390fd5b6001855f015f6101000a81548167ffffffffffffffff021916908367ffffffffffffffff160217905550831561114f576001855f0160086101000a81548160ff0219169083151502179055505b611158336118f8565b865f806101000a81548173ffffffffffffffffffffffffffffffffffffffff021916908373ffffffffffffffffffffffffffffffffffffffff1602179055508560018190555083156111f8575f855f0160086101000a81548160ff0219169083151502179055507fc7f505b2f371ae2175ee4913f4499e1f2633a7b5936321eed1cdaeb6115181d260016040516111ef91906128f5565b60405180910390a15b50505050505050565b611209611285565b5f73ffffffffffffffffffffffffffffffffffffffff168173ffffffffffffffffffffffffffffffffffffffff1603611279575f6040517f1e4fbdf70000000000000000000000000000000000000000000000000000000081526004016112709190612243565b60405180910390fd5b611282816115a2565b50565b61128d61190c565b73ffffffffffffffffffffffffffffffffffffffff166112ab610bfc565b73ffffffffffffffffffffffffffffffffffffffff161461130a576112ce61190c565b6040517f118cdaa70000000000000000000000000000000000000000000000000000000081526004016113019190612243565b60405180910390fd5b565b7f000000000000000000000000000000000000000000000000000000000000000073ffffffffffffffffffffffffffffffffffffffff163073ffffffffffffffffffffffffffffffffffffffff1614806113b957507f000000000000000000000000000000000000000000000000000000000000000073ffffffffffffffffffffffffffffffffffffffff166113a0611913565b73ffffffffffffffffffffffffffffffffffffffff1614155b156113f0576040517fe07c8dba00000000000000000000000000000000000000000000000000000000815260040160405180910390fd5b565b6113fa611285565b50565b8173ffffffffffffffffffffffffffffffffffffffff166352d1902d6040518163ffffffff1660e01b8152600401602060405180830381865afa92505050801561146557506040513d601f19601f820116820180604052508101906114629190612938565b60015b6114a657816040517f4c9c8ce300000000000000000000000000000000000000000000000000000000815260040161149d9190612243565b60405180910390fd5b7f360894a13ba1a3210667c828492db98dca3e2076cc3735a920a3ca505d382bbc5f1b811461150c57806040517faa1d49a400000000000000000000000000000000000000000000000000000000815260040161150391906121c6565b60405180910390fd5b6115168383611966565b505050565b7f000000000000000000000000000000000000000000000000000000000000000073ffffffffffffffffffffffffffffffffffffffff163073ffffffffffffffffffffffffffffffffffffffff16146115a0576040517fe07c8dba00000000000000000000000000000000000000000000000000000000815260040160405180910390fd5b565b5f6115ab611673565b90505f815f015f9054906101000a900473ffffffffffffffffffffffffffffffffffffffff16905082825f015f6101000a81548173ffffffffffffffffffffffffffffffffffffffff021916908373ffffffffffffffffffffffffffffffffffffffff1602179055508273ffffffffffffffffffffffffffffffffffffffff168173ffffffffffffffffffffffffffffffffffffffff167f8be0079c531659141344cd1fd0a4f28419497f9722a3daafe3b4186f6b6457e060405160405180910390a3505050565b5f7f9016d09d72d40fdae2fd8ceac6b6234c7706214fd39c1cd1e609a0528c199300905090565b5f60055f8367ffffffffffffffff1667ffffffffffffffff1681526020019081526020015f2090505f60038054905090505f600160036002846116dd9190612963565b6116e791906129d1565b6116f19190611e70565b9050808360010154106117f1575f835f015f6101000a81548160ff0219169083151502179055508367ffffffffffffffff167fdf9d4301671de060e2e195e67f565c828b184db702c957d98e1735643788c9cc600160405161175391906123a8565b60405180910390a2611767836004016119d8565b5f8054906101000a900473ffffffffffffffffffffffffffffffffffffffff1673ffffffffffffffffffffffffffffffffffffffff1663f682ddbf856040518263ffffffff1660e01b81526004016117bf9190612a10565b5f604051808303815f87803b1580156117d6575f80fd5b505af11580156117e8573d5f803e3d5ffd5b505050506118df565b808360020154106118de575f835f015f6101000a81548160ff0219169083151502179055508367ffffffffffffffff167fdf9d4301671de060e2e195e67f565c828b184db702c957d98e1735643788c9cc5f60405161185091906123a8565b60405180910390a25f8054906101000a900473ffffffffffffffffffffffffffffffffffffffff1673ffffffffffffffffffffffffffffffffffffffff16635044a760856040518263ffffffff1660e01b81526004016118b09190612a10565b5f604051808303815f87803b1580156118c7575f80fd5b505af11580156118d9573d5f803e3d5ffd5b505050505b5b50505050565b5f806118ef611aed565b90508091505090565b611900611b16565b61190981611b56565b50565b5f33905090565b5f61193f7f360894a13ba1a3210667c828492db98dca3e2076cc3735a920a3ca505d382bbc5f1b611bda565b5f015f9054906101000a900473ffffffffffffffffffffffffffffffffffffffff16905090565b61196f82611be3565b8173ffffffffffffffffffffffffffffffffffffffff167fbc7cd75a20ee27fd9adebab32041f755214dbc6bffa90cc0225b39da2e5c2d3b60405160405180910390a25f815111156119cb576119c58282611cac565b506119d4565b6119d3611d9d565b5b5050565b5f818054905014806119eb57505f600254145b611aea575f8180549050600254611a0291906129d1565b90505f6002819055505f5b8280549050811015611ae7575f838281548110611a2d57611a2c6124cf565b5b905f5260205f20015f9054906101000a900473ffffffffffffffffffffffffffffffffffffffff1673ffffffffffffffffffffffffffffffffffffffff1683604051611a7890612589565b5f6040518083038185875af1925050503d805f8114611ab2576040519150601f19603f3d011682016040523d82523d5f602084013e611ab7565b606091505b5050905080611ad9578260025f828254611ad19190611e70565b925050819055505b508080600101915050611a0d565b50505b50565b5f7ff0c57e16840df040f15088dc2f81fe391c3923bec73e23a9662efc9c229c6a005f1b905090565b611b1e611dd9565b611b54576040517fd7e6bcf800000000000000000000000000000000000000000000000000000000815260040160405180910390fd5b565b611b5e611b16565b5f73ffffffffffffffffffffffffffffffffffffffff168173ffffffffffffffffffffffffffffffffffffffff1603611bce575f6040517f1e4fbdf7000000000000000000000000000000000000000000000000000000008152600401611bc59190612243565b60405180910390fd5b611bd7816115a2565b50565b5f819050919050565b5f8173ffffffffffffffffffffffffffffffffffffffff163b03611c3e57806040517f4c9c8ce3000000000000000000000000000000000000000000000000000000008152600401611c359190612243565b60405180910390fd5b80611c6a7f360894a13ba1a3210667c828492db98dca3e2076cc3735a920a3ca505d382bbc5f1b611bda565b5f015f6101000a81548173ffffffffffffffffffffffffffffffffffffffff021916908373ffffffffffffffffffffffffffffffffffffffff16021790555050565b60605f611cb98484611df7565b9050808015611cef57505f611ccc611e0b565b1180611cee57505f8473ffffffffffffffffffffffffffffffffffffffff163b115b5b15611d0457611cfc611e12565b915050611d97565b8015611d4757836040517f9996b315000000000000000000000000000000000000000000000000000000008152600401611d3e9190612243565b60405180910390fd5b5f611d50611e0b565b1115611d6357611d5e611e2f565b611d95565b6040517fd6bda27500000000000000000000000000000000000000000000000000000000815260040160405180910390fd5b505b92915050565b5f341115611dd7576040517fb398979f00000000000000000000000000000000000000000000000000000000815260040160405180910390fd5b565b5f611de26118e5565b5f0160089054906101000a900460ff16905090565b5f805f835160208501865af4905092915050565b5f3d905090565b606060405190503d81523d5f602083013e3d602001810160405290565b6040513d5f823e3d81fd5b5f819050919050565b7f4e487b71000000000000000000000000000000000000000000000000000000005f52601160045260245ffd5b5f611e7a82611e3a565b9150611e8583611e3a565b9250828201905080821115611e9d57611e9c611e43565b5b92915050565b611eac81611e3a565b82525050565b5f602082019050611ec55f830184611ea3565b92915050565b5f604051905090565b5f80fd5b5f80fd5b5f73ffffffffffffffffffffffffffffffffffffffff82169050919050565b5f611f0582611edc565b9050919050565b611f1581611efb565b8114611f1f575f80fd5b50565b5f81359050611f3081611f0c565b92915050565b5f60208284031215611f4b57611f4a611ed4565b5b5f611f5884828501611f22565b91505092915050565b5f67ffffffffffffffff82169050919050565b611f7d81611f61565b8114611f87575f80fd5b50565b5f81359050611f9881611f74565b92915050565b5f60208284031215611fb357611fb2611ed4565b5b5f611fc084828501611f8a565b91505092915050565b5f80fd5b5f80fd5b5f601f19601f8301169050919050565b7f4e487b71000000000000000000000000000000000000000000000000000000005f52604160045260245ffd5b61201782611fd1565b810181811067ffffffffffffffff8211171561203657612035611fe1565b5b80604052505050565b5f612048611ecb565b9050612054828261200e565b919050565b5f67ffffffffffffffff82111561207357612072611fe1565b5b61207c82611fd1565b9050602081019050919050565b828183375f83830152505050565b5f6120a96120a484612059565b61203f565b9050828152602081018484840111156120c5576120c4611fcd565b5b6120d0848285612089565b509392505050565b5f82601f8301126120ec576120eb611fc9565b5b81356120fc848260208601612097565b91505092915050565b5f806040838503121561211b5761211a611ed4565b5b5f61212885828601611f22565b925050602083013567ffffffffffffffff81111561214957612148611ed8565b5b612155858286016120d8565b9150509250929050565b5f8115159050919050565b6121738161215f565b82525050565b5f60608201905061218c5f83018661216a565b6121996020830185611ea3565b6121a66040830184611ea3565b949350505050565b5f819050919050565b6121c0816121ae565b82525050565b5f6020820190506121d95f8301846121b7565b92915050565b6121e881611e3a565b81146121f2575f80fd5b50565b5f81359050612203816121df565b92915050565b5f6020828403121561221e5761221d611ed4565b5b5f61222b848285016121f5565b91505092915050565b61223d81611efb565b82525050565b5f6020820190506122565f830184612234565b92915050565b5f819050919050565b5f61227f61227a61227584611edc565b61225c565b611edc565b9050919050565b5f61229082612265565b9050919050565b5f6122a182612286565b9050919050565b6122b181612297565b82525050565b5f6020820190506122ca5f8301846122a8565b92915050565b5f81519050919050565b5f82825260208201905092915050565b5f5b838110156123075780820151818401526020810190506122ec565b5f8484015250505050565b5f61231c826122d0565b61232681856122da565b93506123368185602086016122ea565b61233f81611fd1565b840191505092915050565b5f6020820190508181035f8301526123628184612312565b905092915050565b5f80604083850312156123805761237f611ed4565b5b5f61238d85828601611f8a565b925050602061239e85828601611f22565b9150509250929050565b5f6020820190506123bb5f83018461216a565b92915050565b6123ca8161215f565b81146123d4575f80fd5b50565b5f813590506123e5816123c1565b92915050565b5f806040838503121561240157612400611ed4565b5b5f61240e85828601611f8a565b925050602061241f858286016123d7565b9150509250929050565b5f806040838503121561243f5761243e611ed4565b5b5f61244c85828601611f22565b925050602061245d858286016121f5565b9150509250929050565b7f6e6f7468696e67207374616b65640000000000000000000000000000000000005f82015250565b5f61249b600e836122da565b91506124a682612467565b602082019050919050565b5f6020820190508181035f8301526124c88161248f565b9050919050565b7f4e487b71000000000000000000000000000000000000000000000000000000005f52603260045260245ffd5b5f61250682611e3a565b915061251183611e3a565b925082820390508181111561252957612528611e43565b5b92915050565b7f4e487b71000000000000000000000000000000000000000000000000000000005f52603160045260245ffd5b5f81905092915050565b50565b5f6125745f8361255c565b915061257f82612566565b5f82019050919050565b5f61259382612569565b9150819050919050565b7f7472616e73666572206661696c656400000000000000000000000000000000005f82015250565b5f6125d1600f836122da565b91506125dc8261259d565b602082019050919050565b5f6020820190508181035f8301526125fe816125c5565b9050919050565b7f62656c6f77206d696e207374616b6500000000000000000000000000000000005f82015250565b5f612639600f836122da565b915061264482612605565b602082019050919050565b5f6020820190508181035f8301526126668161262d565b9050919050565b7f726f756e6420616c7265616479206f70656e00000000000000000000000000005f82015250565b5f6126a16012836122da565b91506126ac8261266d565b602082019050919050565b5f6020820190508181035f8301526126ce81612695565b9050919050565b7f6e6f2076616c696461746f7273207374616b65640000000000000000000000005f82015250565b5f6127096014836122da565b9150612714826126d5565b602082019050919050565b5f6020820190508181035f830152612736816126fd565b9050919050565b7f6e6f206f70656e20726f756e64000000000000000000000000000000000000005f82015250565b5f612771600d836122da565b915061277c8261273d565b602082019050919050565b5f6020820190508181035f83015261279e81612765565b9050919050565b7f6e6f74207374616b6564000000000000000000000000000000000000000000005f82015250565b5f6127d9600a836122da565b91506127e4826127a5565b602082019050919050565b5f6020820190508181035f830152612806816127cd565b9050919050565b7f616c726561647920766f746564000000000000000000000000000000000000005f82015250565b5f612841600d836122da565b915061284c8261280d565b602082019050919050565b5f6020820190508181035f83015261286e81612835565b9050919050565b5f61287f82611e3a565b91507fffffffffffffffffffffffffffffffffffffffffffffffffffffffffffffffff82036128b1576128b0611e43565b5b600182019050919050565b5f819050919050565b5f6128df6128da6128d5846128bc565b61225c565b611f61565b9050919050565b6128ef816128c5565b82525050565b5f6020820190506129085f8301846128e6565b92915050565b612917816121ae565b8114612921575f80fd5b50565b5f815190506129328161290e565b92915050565b5f6020828403121561294d5761294c611ed4565b5b5f61295a84828501612924565b91505092915050565b5f61296d82611e3a565b915061297883611e3a565b925082820261298681611e3a565b9150828204841483151761299d5761299c611e43565b5b5092915050565b7f4e487b71000000000000000000000000000000000000000000000000000000005f52601260045260245ffd5b5f6129db82611e3a565b91506129e683611e3a565b9250826129f6576129f56129a4565b5b828204905092915050565b612a0a81611f61565b82525050565b5f602082019050612a235f830184612a01565b9291505056fea26469706673582212200d16544987df6a39b0d7f2c8d820f0d68009df94986fbff9de48c06c3105565564736f6c63430008180033",
  "linkReferences": {},
  "deployedLinkReferences": {}
}