{
  "_format": "hh-sol-artifact-1",
  "contractName": "ValidatorConsensus",
  "sourceName": "src/ValidatorConsensus.sol",
  "abi": [
    {
      "inputs": [
        {
          "internalType": "address",
          "name": "target",
          "type": "address"
        }
      ],
      "name": "AddressEmptyCode",
      "type": "error"
    },
    {
      "inputs": [
        {
          "internalType": "address",
          "name": "implementation",
          "type": "address"
        }
      ],
      "name": "ERC1967InvalidImplementation",
      "type": "error"
    },
    {
      "inputs": [],
      "name": "ERC1967NonPayable",
      "type": "error"
    },
    {
      "inputs": [],
      "name": "FailedCall",
      "type": "error"
    },
    {
      "inputs": [],
      "name": "InvalidInitialization",
      "type": "error"
    },
    {
      "inputs": [],
      "name": "NotInitializing",
      "type": "error"
    },
    {
      "inputs": [
        {
          "internalType": "address",
          "name": "owner",
          "type": "address"
        }
      ],
      "name": "OwnableInvalidOwner",
      "type": "error"
    },
    {
      "inputs": [
        {
          "internalType": "address",
          "name": "account",
          "type": "address"
        }
      ],
      "name": "OwnableUnauthorizedAccount",
      "type": "error"
    },
    {
      "inputs": [
        {
          "internalType": "address",
          "name": "token",
          "type": "address"
        }
      ],
      "name": "SafeERC20FailedOperation",
      "type": "error"
    },
    {
      "inputs": [],
      "name": "UUPSUnauthorizedCallContext",
      "type": "error"
    },
    {
      "inputs": [
        {
          "internalType": "bytes32",
          "name": "slot",
          "type": "bytes32"
        }
      ],
      "name": "UUPSUnsupportedProxiableUUID",
      "type": "error"
    },
    {
      "anonymous": false,
      "inputs": [
        {
          "indexed": true,
          "internalType": "uint64",
          "name": "jobId",
          "type": "uint64"
        },
        {
          "indexed": false,
          "internalType": "bool",
          "name": "approved",
          "type": "bool"
        }
      ],
      "name": "ConsensusReached",
      "type": "event"
    },
    {
      "anonymous": false,
      "inputs": [
        {
          "indexed": false,
          "internalType": "uint64",
          "name": "version",
          "type": "uint64"
        }
      ],
      "name": "Initialized",
      "type": "event"
    },
    {
      "anonymous": false,
      "inputs": [
        {
          "indexed": true,
          "internalType": "address",
          "name": "previousOwner",
          "type": "address"
        },
        {
          "indexed": true,
          "internalType": "address",
          "name": "newOwner",
          "type": "address"
        }
      ],
      "name": "OwnershipTransferred",
      "type": "event"
    },
    {
      "anonymous": false,
      "inputs": [
        {
          "indexed": true,
          "internalType": "address",
          "name": "validator",
          "type": "address"
        },
        {
          "indexed": false,
          "internalType": "uint256",
          "name": "amount",
          "type": "uint256"
        }
      ],
      "name": "Staked",
      "type": "event"
    },
    {
      "anonymous": false,
      "inputs": [
        {
          "indexed": true,
          "internalType": "address",
          "name": "validator",
          "type": "address"
        },
        {
          "indexed": false,
          "internalType": "uint256",
          "name": "amount",
          "type": "uint256"
        }
      ],
      "name": "Unstaked",
      "type": "event"
    },
    {
      "anonymous": false,
      "inputs": [
        {
          "indexed": true,
          "internalType": "address",
          "name": "implementation",
          "type": "address"
        }
      ],
      "name": "Upgraded",
      "type": "event"
    },
    {
      "anonymous": false,
      "inputs": [
        {
          "indexed": true,
          "internalType": "uint64",
          "name": "jobId",
          "type": "uint64"
        }
      ],
      "name": "ValidationRequested",
      "type": "event"
    },
    {
      "anonymous": false,
      "inputs": [
        {
          "indexed": true,
          "internalType": "uint64",
          "name": "jobId",
          "type": "uint64"
        },
        {
          "indexed": true,
          "internalType": "address",
          "name": "validator",
          "type": "address"
        },
        {
          "indexed": false,
          "internalType": "bool",
          "name": "approve",
          "type": "bool"
        }
      ],
      "name": "Voted",
      "type": "event"
    },
    {
      "inputs": [],
      "name": "UPGRADE_INTERFACE_VERSION",
      "outputs": [
        {
          "internalType": "string",
          "name": "",
          "type": "string"
        }
      ],
      "stateMutability": "view",
      "type": "function"
    },
    {
      "inputs": [],
      "name": "commerce",
      "outputs": [
        {
          "internalType": "contract IAgenticCommerce",
          "name": "",
          "type": "address"
        }
      ],
      "stateMutability": "view",
      "type": "function"
    },
    {
      "inputs": [
        {
          "internalType": "uint256",
          "name": "amount",
          "type": "uint256"
        }
      ],
      "name": "depositRewards",
      "outputs": [],
      "stateMutability": "nonpayable",
      "type": "function"
    },
    {
      "inputs": [
        {
          "internalType": "uint64",
          "name": "jobId",
          "type": "uint64"
        },
        {
          "internalType": "address",
          "name": "validator",
          "type": "address"
        }
      ],
      "name": "hasVoted",
      "outputs": [
        {
          "internalType": "bool",
          "name": "",
          "type": "bool"
        }
      ],
      "stateMutability": "view",
      "type": "function"
    },
    {
      "inputs": [
        {
          "internalType": "address",
          "name": "_token",
          "type": "address"
        },
        {
          "internalType": "address",
          "name": "_commerce",
          "type": "address"
        },
        {
          "internalType": "uint256",
          "name": "_minStake",
          "type": "uint256"
        }
      ],
      "name": "initialize",
      "outputs": [],
      "stateMutability": "nonpayable",
      "type": "function"
    },
    {
      "inputs": [],
      "name": "minStake",
      "outputs": [
        {
          "internalType": "uint256",
          "name": "",
          "type": "uint256"
        }
      ],
      "stateMutability": "view",
      "type": "function"
    },
    {
      "inputs": [],
      "name": "owner",
      "outputs": [
        {
          "internalType": "address",
          "name": "",
          "type": "address"
        }
      ],
      "stateMutability": "view",
      "type": "function"
    },
    {
      "inputs": [],
      "name": "proxiableUUID",
      "outputs": [
        {
          "internalType": "bytes32",
          "name": "",
          "type": "bytes32"
        }
      ],
      "stateMutability": "view",
      "type": "function"
    },
    {
      "inputs": [],
      "name": "renounceOwnership",
      "outputs": [],
      "stateMutability": "nonpayable",
      "type": "function"
    },
    {
      "inputs": [
        {
          "internalType": "uint64",
          "name": "jobId",
          "type": "uint64"
        }
      ],
      "name": "requestValidation",
      "outputs": [],
      "stateMutability": "nonpayable",
      "type": "function"
    },
    {
      "inputs": [
        {
          "internalType": "uint64",
          "name": "jobId",
          "type": "uint64"
        }
      ],
      "name": "roundStatus",
      "outputs": [
        {
          "internalType": "bool",
          "name": "open",
          "type": "bool"
        },
        {
          "internalType": "uint256",
          "name": "approvals",
          "type": "uint256"
        },
        {
          "internalType": "uint256",
          "name": "rejections",
          "type": "uint256"
        }
      ],
      "stateMutability": "view",
      "type": "function"
    },
    {
      "inputs": [
        {
          "internalType": "address",
          "name": "_commerce",
          "type": "address"
        }
      ],
      "name": "setCommerce",
      "outputs": [],
      "stateMutability": "nonpayable",
      "type": "function"
    },
    {
      "inputs": [
        {
          "internalType": "uint256",
          "name": "_minStake",
          "type": "uint256"
        }
      ],
      "name": "setMinStake",
      "outputs": [],
      "stateMutability": "nonpayable",
      "type": "function"
    },
    {
      "inputs": [
        {
          "internalType": "uint256",
          "name": "amount",
          "type": "uint256"
        }
      ],
      "name": "stake",
      "outputs": [],
      "stateMutability": "nonpayable",
      "type": "function"
    },
    {
      "inputs": [
        {
          "internalType": "address",
          "name": "",
          "type": "address"
        }
      ],
      "name": "staked",
      "outputs": [
        {
          "internalType": "uint256",
          "name": "",
          "type": "uint256"
        }
      ],
      "stateMutability": "view",
      "type": "function"
    },
    {
      "inputs": [],
      "name": "token",
      "outputs": [
        {
          "internalType": "contract IERC20",
          "name": "",
          "type": "address"
        }
      ],
      "stateMutability": "view",
      "type": "function"
    },
    {
      "inputs": [
        {
          "internalType": "address",
          "name": "newOwner",
          "type": "address"
        }
      ],
      "name": "transferOwnership",
      "outputs": [],
      "stateMutability": "nonpayable",
      "type": "function"
    },
    {
      "inputs": [],
      "name": "unstake",
      "outputs": [],
      "stateMutability": "nonpayable",
      "type": "function"
    },
    {
      "inputs": [
        {
          "internalType": "address",
          "name": "newImplementation",
          "type": "address"
        },
        {
          "internalType": "bytes",
          "name": "data",
          "type": "bytes"
        }
      ],
      "name": "upgradeToAndCall",
      "outputs": [],
      "stateMutability": "payable",
      "type": "function"
    },
    {
      "inputs": [],
      "name": "validatorCount",
      "outputs": [
        {
          "internalType": "uint256",
          "name": "",
          "type": "uint256"
        }
      ],
      "stateMutability": "view",
      "type": "function"
    },
    {
      "inputs": [],
      "name": "validatorFeeBps",
      "outputs": [
        {
          "internalType": "uint256",
          "name": "",
          "type": "uint256"
        }
      ],
      "stateMutability": "view",
      "type": "function"
    },
    {
      "inputs": [
        {
          "internalType": "uint256",
          "name": "",
          "type": "uint256"
        }
      ],
      "name": "validatorList",
      "outputs": [
        {
          "internalType": "address",
          "name": "",
          "type": "address"
        }
      ],
      "stateMutability": "view",
      "type": "function"
    },
    {
      "inputs": [
        {
          "internalType": "uint64",
          "name": "jobId",
          "type": "uint64"
        },
        {
          "internalType": "bool",
          "name": "approve",
          "type": "bool"
        }
      ],
      "name": "vote",
      "outputs": [],
      "stateMutability": "nonpayable",
      "type": "function"
    }
  ],
  "bytecode": "0x60a06040523073ffffffffffffffffffffffffffffffffffffffff1660809073ffffffffffffffffffffffffffffffffffffffff16815250348015610042575f80fd5b50608051612e136100695f395f8181611469015281816114be01526116780152612e135ff3fe60806040526004361061013f575f3560e01c80638c80fd90116100b5578063ad3cb1cc1161006e578063ad3cb1cc146103f1578063b048e0561461041b578063c61ff60014610457578063c7f2156014610493578063f2fde38b146104bb578063fc0c546a146104e35761013f565b80638c80fd90146102e75780638da5cb5b1461030f578063912955fd1461033957806398807d8414610363578063a694fc3a1461039f578063a944ee05146103c75761013f565b80634612629d116101075780634612629d146101fd5780634f1ef286146102255780634f631dc41461024157806352d1902d1461027f578063715018a6146102a95780638bdf67f2146102bf5761013f565b80630f43a677146101435780631794bb3c1461016d5780632761a48b146101955780632def6620146101bd578063375b3c0a146101d3575b5f80fd5b34801561014e575f80fd5b5061015761050d565b6040516101649190612225565b60405180910390f35b348015610178575f80fd5b50610193600480360381019061018e91906122d3565b610519565b005b3480156101a0575f80fd5b506101bb60048036038101906101b69190612323565b61072a565b005b3480156101c8575f80fd5b506101d1610775565b005b3480156101de575f80fd5b506101e7610a4f565b6040516101f49190612225565b60405180910390f35b348015610208575f80fd5b50610223600480360381019061021e919061238b565b610a55565b005b61023f600480360381019061023a91906124f2565b610b89565b005b34801561024c575f80fd5b506102676004803603810190610262919061238b565b610ba8565b60405161027693929190612566565b60405180910390f35b34801561028a575f80fd5b50610293610bfb565b6040516102a091906125b3565b60405180910390f35b3480156102b4575f80fd5b506102bd610c2c565b005b3480156102ca575f80fd5b506102e560048036038101906102e091906125cc565b610c3f565b005b3480156102f2575f80fd5b5061030d600480360381019061030891906125cc565b610c8e565b005b34801561031a575f80fd5b50610323610ca0565b6040516103309190612606565b60405180910390f35b348015610344575f80fd5b5061034d610cd5565b60405161035a919061267a565b60405180910390f35b34801561036e575f80fd5b5061038960048036038101906103849190612323565b610cfa565b6040516103969190612225565b60405180910390f35b3480156103aa575f80fd5b506103c560048036038101906103c091906125cc565b610d0f565b005b3480156103d2575f80fd5b506103db610ee9565b6040516103e89190612225565b60405180910390f35b3480156103fc575f80fd5b50610405610eef565b604051610412919061270d565b60405180910390f35b348015610426575f80fd5b50610441600480360381019061043c91906125cc565b610f28565b60405161044e9190612606565b60405180910390f35b348015610462575f80fd5b5061047d6004803603810190610478919061272d565b610f63565b60405161048a919061276b565b60405180910390f35b34801561049e575f80fd5b506104b960048036038101906104b491906127ae565b610fdc565b005b3480156104c6575f80fd5b506104e160048036038101906104dc9190612323565b6112bf565b005b3480156104ee575f80fd5b506104f7611343565b604051610504919061280c565b60405180910390f35b5f600480549050905090565b5f610522611366565b90505f815f0160089054906101000a900460ff161590505f825f015f9054906101000a900467ffffffffffffffff1690505f808267ffffffffffffffff1614801561056a5750825b90505f60018367ffffffffffffffff1614801561059d57505f3073ffffffffffffffffffffffffffffffffffffffff163b145b9050811580156105ab575080155b156105e2576040517ff92ee8a900000000000000000000000000000000000000000000000000000000815260040160405180910390fd5b6001855f015f6101000a81548167ffffffffffffffff021916908367ffffffffffffffff160217905550831561062f576001855f0160086101000a81548160ff0219169083151502179055505b61063833611379565b875f806101000a81548173ffffffffffffffffffffffffffffffffffffffff021916908373ffffffffffffffffffffffffffffffffffffffff1602179055508660015f6101000a81548173ffffffffffffffffffffffffffffffffffffffff021916908373ffffffffffffffffffffffffffffffffffffffff1602179055508560028190555060326003819055508315610720575f855f0160086101000a81548160ff0219169083151502179055507fc7f505b2f371ae2175ee4913f4499e1f2633a7b5936321eed1cdaeb6115181d26001604051610717919061285e565b60405180910390a15b5050505050505050565b61073261138d565b8060015f6101000a81548173ffffffffffffffffffffffffffffffffffffffff021916908373ffffffffffffffffffffffffffffffffffffffff16021790555050565b5f60055f3373ffffffffffffffffffffffffffffffffffffffff1673ffffffffffffffffffffffffffffffffffffffff1681526020019081526020015f205490505f81116107f8576040517f08c379a00000000000000000000000000000000000000000000000000000000081526004016107ef906128c1565b60405180910390fd5b5f60055f3373ffffffffffffffffffffffffffffffffffffffff1673ffffffffffffffffffffffffffffffffffffffff1681526020019081526020015f20819055505f5b6004805490508110156109b3573373ffffffffffffffffffffffffffffffffffffffff1660048281548110610874576108736128df565b5b905f5260205f20015f9054906101000a900473ffffffffffffffffffffffffffffffffffffffff1673ffffffffffffffffffffffffffffffffffffffff16036109a657600460016004805490506108cb9190612939565b815481106108dc576108db6128df565b5b905f5260205f20015f9054906101000a900473ffffffffffffffffffffffffffffffffffffffff1660048281548110610918576109176128df565b5b905f5260205f20015f6101000a81548173ffffffffffffffffffffffffffffffffffffffff021916908373ffffffffffffffffffffffffffffffffffffffff160217905550600480548061096f5761096e61296c565b5b600190038181905f5260205f20015f6101000a81549073ffffffffffffffffffffffffffffffffffffffff021916905590556109b3565b808060010191505061083c565b506109fe33825f8054906101000a900473ffffffffffffffffffffffffffffffffffffffff1673ffffffffffffffffffffffffffffffffffffffff166114149092919063ffffffff16565b3373ffffffffffffffffffffffffffffffffffffffff167f0f5bb82176feb1b5e747e28471aa92156a04d9f3ab9f45f28e2d704232b93f7582604051610a449190612225565b60405180910390a250565b60025481565b60065f8267ffffffffffffffff1667ffffffffffffffff1681526020019081526020015f205f015f9054906101000a900460ff1615610ac9576040517f08c379a0000000000000000000000000000000000000000000000000000000008152600401610ac0906129e3565b60405180910390fd5b5f60048054905011610b10576040517f08c379a0000000000000000000000000000000000000000000000000000000008152600401610b0790612a4b565b60405180910390fd5b600160065f8367ffffffffffffffff1667ffffffffffffffff1681526020019081526020015f205f015f6101000a81548160ff0219169083151502179055508067ffffffffffffffff167f0f7c98c520b71007f18b52f598ef593e797a4bc062e3ce6e4e565edd2eabcf6160405160405180910390a250565b610b91611467565b610b9a8261154d565b610ba48282611558565b5050565b5f805f8060065f8667ffffffffffffffff1667ffffffffffffffff1681526020019081526020015f209050805f015f9054906101000a900460ff1681600101548260020154935093509350509193909250565b5f610c04611676565b7f360894a13ba1a3210667c828492db98dca3e2076cc3735a920a3ca505d382bbc5f1b905090565b610c3461138d565b610c3d5f6116fd565b565b610c8b3330835f8054906101000a900473ffffffffffffffffffffffffffffffffffffffff1673ffffffffffffffffffffffffffffffffffffffff166117ce909392919063ffffffff16565b50565b610c9661138d565b8060028190555050565b5f80610caa611823565b9050805f015f9054906101000a900473ffffffffffffffffffffffffffffffffffffffff1691505090565b60015f9054906101000a900473ffffffffffffffffffffffffffffffffffffffff1681565b6005602052805f5260405f205f915090505481565b600254811015610d54576040517f08c379a0000000000000000000000000000000000000000000000000000000008152600401610d4b90612ab3565b60405180910390fd5b610da03330835f8054906101000a900473ffffffffffffffffffffffffffffffffffffffff1673ffffffffffffffffffffffffffffffffffffffff166117ce909392919063ffffffff16565b5f60055f3373ffffffffffffffffffffffffffffffffffffffff1673ffffffffffffffffffffffffffffffffffffffff1681526020019081526020015f205403610e4557600433908060018154018082558091505060019003905f5260205f20015f9091909190916101000a81548173ffffffffffffffffffffffffffffffffffffffff021916908373ffffffffffffffffffffffffffffffffffffffff1602179055505b8060055f3373ffffffffffffffffffffffffffffffffffffffff1673ffffffffffffffffffffffffffffffffffffffff1681526020019081526020015f205f828254610e919190612ad1565b925050819055503373ffffffffffffffffffffffffffffffffffffffff167f9e71bc8eea02a63969f509818f2dafb9254532904319f9dbda79b67bd34a5f3d82604051610ede9190612225565b60405180910390a250565b60035481565b6040518060400160405280600581526020017f352e302e3000000000000000000000000000000000000000000000000000000081525081565b60048181548110610f37575f80fd5b905f5260205f20015f915054906101000a900473ffffffffffffffffffffffffffffffffffffffff1681565b5f60065f8467ffffffffffffffff1667ffffffffffffffff1681526020019081526020015f206003015f8373ffffffffffffffffffffffffffffffffffffffff1673ffffffffffffffffffffffffffffffffffffffff1681526020019081526020015f205f9054906101000a900460ff16905092915050565b5f60065f8467ffffffffffffffff1667ffffffffffffffff1681526020019081526020015f209050805f015f9054906101000a900460ff16611053576040517f08c379a000000000000000000000000000000000000000000000000000000000815260040161104a90612b4e565b60405180910390fd5b60025460055f3373ffffffffffffffffffffffffffffffffffffffff1673ffffffffffffffffffffffffffffffffffffffff1681526020019081526020015f205410156110d5576040517f08c379a00000000000000000000000000000000000000000000000000000000081526004016110cc90612bb6565b60405180910390fd5b806003015f3373ffffffffffffffffffffffffffffffffffffffff1673ffffffffffffffffffffffffffffffffffffffff1681526020019081526020015f205f9054906101000a900460ff1615611161576040517f08c379a000000000000000000000000000000000000000000000000000000000815260040161115890612c1e565b60405180910390fd5b6001816003015f3373ffffffffffffffffffffffffffffffffffffffff1673ffffffffffffffffffffffffffffffffffffffff1681526020019081526020015f205f6101000a81548160ff021916908315150217905550811561123e57806001015f8154809291906111d290612c3c565b91905055508060040133908060018154018082558091505060019003905f5260205f20015f9091909190916101000a81548173ffffffffffffffffffffffffffffffffffffffff021916908373ffffffffffffffffffffffffffffffffffffffff160217905550611258565b806002015f81548092919061125290612c3c565b91905055505b3373ffffffffffffffffffffffffffffffffffffffff168367ffffffffffffffff167f124fc85f0c5f8fa9252653b49b8fb9b6602cfd207a1a4890631ca33dc8f00161846040516112a9919061276b565b60405180910390a36112ba8361184a565b505050565b6112c761138d565b5f73ffffffffffffffffffffffffffffffffffffffff168173ffffffffffffffffffffffffffffffffffffffff1603611337575f6040517f1e4fbdf700000000000000000000000000000000000000000000000000000000815260040161132e9190612606565b60405180910390fd5b611340816116fd565b50565b5f8054906101000a900473ffffffffffffffffffffffffffffffffffffffff1681565b5f80611370611a9a565b90508091505090565b611381611ac3565b61138a81611b03565b50565b611395611b87565b73ffffffffffffffffffffffffffffffffffffffff166113b3610ca0565b73ffffffffffffffffffffffffffffffffffffffff1614611412576113d6611b87565b6040517f118cdaa70000000000000000000000000000000000000000000000000000000081526004016114099190612606565b60405180910390fd5b565b6114218383836001611b8e565b61146257826040517f5274afe70000000000000000000000000000000000000000000000000000000081526004016114599190612606565b60405180910390fd5b505050565b7f000000000000000000000000000000000000000000000000000000000000000073ffffffffffffffffffffffffffffffffffffffff163073ffffffffffffffffffffffffffffffffffffffff16148061151457507f000000000000000000000000000000000000000000000000000000000000000073ffffffffffffffffffffffffffffffffffffffff166114fb611bf0565b73ffffffffffffffffffffffffffffffffffffffff1614155b1561154b576040517fe07c8dba00000000000000000000000000000000000000000000000000000000815260040160405180910390fd5b565b61155561138d565b50565b8173ffffffffffffffffffffffffffffffffffffffff166352d1902d6040518163ffffffff1660e01b8152600401602060405180830381865afa9250505080156115c057506040513d601f19601f820116820180604052508101906115bd9190612cad565b60015b61160157816040517f4c9c8ce30000000000000000000000000000000000000000000000000000000081526004016115f89190612606565b60405180910390fd5b7f360894a13ba1a3210667c828492db98dca3e2076cc3735a920a3ca505d382bbc5f1b811461166757806040517faa1d49a400000000000000000000000000000000000000000000000000000000815260040161165e91906125b3565b60405180910390fd5b6116718383611c43565b505050565b7f000000000000000000000000000000000000000000000000000000000000000073ffffffffffffffffffffffffffffffffffffffff163073ffffffffffffffffffffffffffffffffffffffff16146116fb576040517fe07c8dba00000000000000000000000000000000000000000000000000000000815260040160405180910390fd5b565b5f611706611823565b90505f815f015f9054906101000a900473ffffffffffffffffffffffffffffffffffffffff16905082825f015f6101000a81548173ffffffffffffffffffffffffffffffffffffffff021916908373ffffffffffffffffffffffffffffffffffffffff1602179055508273ffffffffffffffffffffffffffffffffffffffff168173ffffffffffffffffffffffffffffffffffffffff167f8be0079c531659141344cd1fd0a4f28419497f9722a3daafe3b4186f6b6457e060405160405180910390a3505050565b6117dc848484846001611cb5565b61181d57836040517f5274afe70000000000000000000000000000000000000000000000000000000081526004016118149190612606565b60405180910390fd5b50505050565b5f7f9016d09d72d40fdae2fd8ceac6b6234c7706214fd39c1cd1e609a0528c199300905090565b5f60065f8367ffffffffffffffff1667ffffffffffffffff1681526020019081526020015f2090505f60048054905090505f6001600360028461188d9190612cd8565b6118979190612d46565b6118a19190612ad1565b9050808360010154106119a4575f835f015f6101000a81548160ff0219169083151502179055508367ffffffffffffffff167fdf9d4301671de060e2e195e67f565c828b184db702c957d98e1735643788c9cc6001604051611903919061276b565b60405180910390a26119188484600401611d26565b60015f9054906101000a900473ffffffffffffffffffffffffffffffffffffffff1673ffffffffffffffffffffffffffffffffffffffff1663f682ddbf856040518263ffffffff1660e01b81526004016119729190612d85565b5f604051808303815f87803b158015611989575f80fd5b505af115801561199b573d5f803e3d5ffd5b50505050611a94565b80836002015410611a93575f835f015f6101000a81548160ff0219169083151502179055508367ffffffffffffffff167fdf9d4301671de060e2e195e67f565c828b184db702c957d98e1735643788c9cc5f604051611a03919061276b565b60405180910390a260015f9054906101000a900473ffffffffffffffffffffffffffffffffffffffff1673ffffffffffffffffffffffffffffffffffffffff16635044a760856040518263ffffffff1660e01b8152600401611a659190612d85565b5f604051808303815f87803b158015611a7c575f80fd5b505af1158015611a8e573d5f803e3d5ffd5b505050505b5b50505050565b5f7ff0c57e16840df040f15088dc2f81fe391c3923bec73e23a9662efc9c229c6a005f1b905090565b611acb611fad565b611b01576040517fd7e6bcf800000000000000000000000000000000000000000000000000000000815260040160405180910390fd5b565b611b0b611ac3565b5f73ffffffffffffffffffffffffffffffffffffffff168173ffffffffffffffffffffffffffffffffffffffff1603611b7b575f6040517f1e4fbdf7000000000000000000000000000000000000000000000000000000008152600401611b729190612606565b60405180910390fd5b611b84816116fd565b50565b5f33905090565b5f8063a9059cbb60e01b9050604051815f525f1960601c86166004528460245260205f60445f808b5af1925060015f51148316611be2578383151615611bd6573d5f823e3d81fd5b5f873b113d1516831692505b806040525050949350505050565b5f611c1c7f360894a13ba1a3210667c828492db98dca3e2076cc3735a920a3ca505d382bbc5f1b611fcb565b5f015f9054906101000a900473ffffffffffffffffffffffffffffffffffffffff16905090565b611c4c82611fd4565b8173ffffffffffffffffffffffffffffffffffffffff167fbc7cd75a20ee27fd9adebab32041f755214dbc6bffa90cc0225b39da2e5c2d3b60405160405180910390a25f81511115611ca857611ca2828261209d565b50611cb1565b611cb061218e565b5b5050565b5f806323b872dd60e01b9050604051815f525f1960601c87166004525f1960601c86166024528460445260205f60645f808c5af1925060015f51148316611d13578383151615611d07573d5f823e3d81fd5b5f883b113d1516831692505b806040525f606052505095945050505050565b5f81805490501480611d8257505f73ffffffffffffffffffffffffffffffffffffffff165f8054906101000a900473ffffffffffffffffffffffffffffffffffffffff1673ffffffffffffffffffffffffffffffffffffffff16145b611fa9575f805f9054906101000a900473ffffffffffffffffffffffffffffffffffffffff1673ffffffffffffffffffffffffffffffffffffffff166370a08231306040518263ffffffff1660e01b8152600401611de09190612606565b602060405180830381865afa158015611dfb573d5f803e3d5ffd5b505050506040513d601f19601f82011682018060405250810190611e1f9190612db2565b90505f805b600480549050811015611ec45760055f60048381548110611e4857611e476128df565b5b905f5260205f20015f9054906101000a900473ffffffffffffffffffffffffffffffffffffffff1673ffffffffffffffffffffffffffffffffffffffff1673ffffffffffffffffffffffffffffffffffffffff1681526020019081526020015f205482611eb59190612ad1565b91508080600101915050611e24565b505f818311611ed3575f611ee0565b8183611edf9190612939565b5b90505f8103611ef157505050611fa9565b5f848054905082611f029190612d46565b90505f5b8580549050811015611fa357611f96868281548110611f2857611f276128df565b5b905f5260205f20015f9054906101000a900473ffffffffffffffffffffffffffffffffffffffff16835f8054906101000a900473ffffffffffffffffffffffffffffffffffffffff1673ffffffffffffffffffffffffffffffffffffffff166114149092919063ffffffff16565b8080600101915050611f06565b50505050505b5050565b5f611fb6611366565b5f0160089054906101000a900460ff16905090565b5f819050919050565b5f8173ffffffffffffffffffffffffffffffffffffffff163b0361202f57806040517f4c9c8ce30000000000000000000000000000000000000000000000000000000081526004016120269190612606565b60405180910390fd5b8061205b7f360894a13ba1a3210667c828492db98dca3e2076cc3735a920a3ca505d382bbc5f1b611fcb565b5f015f6101000a81548173ffffffffffffffffffffffffffffffffffffffff021916908373ffffffffffffffffffffffffffffffffffffffff16021790555050565b60605f6120aa84846121ca565b90508080156120e057505f6120bd6121de565b11806120df57505f8473ffffffffffffffffffffffffffffffffffffffff163b115b5b156120f5576120ed6121e5565b915050612188565b801561213857836040517f9996b31500000000000000000000000000000000000000000000000000000000815260040161212f9190612606565b60405180910390fd5b5f6121416121de565b11156121545761214f612202565b612186565b6040517fd6bda27500000000000000000000000000000000000000000000000000000000815260040160405180910390fd5b505b92915050565b5f3411156121c8576040517fb398979f00000000000000000000000000000000000000000000000000000000815260040160405180910390fd5b565b5f805f835160208501865af4905092915050565b5f3d905090565b606060405190503d81523d5f602083013e3d602001810160405290565b6040513d5f823e3d81fd5b5f819050919050565b61221f8161220d565b82525050565b5f6020820190506122385f830184612216565b92915050565b5f604051905090565b5f80fd5b5f80fd5b5f73ffffffffffffffffffffffffffffffffffffffff82169050919050565b5f6122788261224f565b9050919050565b6122888161226e565b8114612292575f80fd5b50565b5f813590506122a38161227f565b92915050565b6122b28161220d565b81146122bc575f80fd5b50565b5f813590506122cd816122a9565b92915050565b5f805f606084860312156122ea576122e9612247565b5b5f6122f786828701612295565b935050602061230886828701612295565b9250506040612319868287016122bf565b9150509250925092565b5f6020828403121561233857612337612247565b5b5f61234584828501612295565b91505092915050565b5f67ffffffffffffffff82169050919050565b61236a8161234e565b8114612374575f80fd5b50565b5f8135905061238581612361565b92915050565b5f602082840312156123a05761239f612247565b5b5f6123ad84828501612377565b91505092915050565b5f80fd5b5f80fd5b5f601f19601f8301169050919050565b7f4e487b71000000000000000000000000000000000000000000000000000000005f52604160045260245ffd5b612404826123be565b810181811067ffffffffffffffff82111715612423576124226123ce565b5b80604052505050565b5f61243561223e565b905061244182826123fb565b919050565b5f67ffffffffffffffff8211156124605761245f6123ce565b5b612469826123be565b9050602081019050919050565b828183375f83830152505050565b5f61249661249184612446565b61242c565b9050828152602081018484840111156124b2576124b16123ba565b5b6124bd848285612476565b509392505050565b5f82601f8301126124d9576124d86123b6565b5b81356124e9848260208601612484565b91505092915050565b5f806040838503121561250857612507612247565b5b5f61251585828601612295565b925050602083013567ffffffffffffffff8111156125365761253561224b565b5b612542858286016124c5565b9150509250929050565b5f8115159050919050565b6125608161254c565b82525050565b5f6060820190506125795f830186612557565b6125866020830185612216565b6125936040830184612216565b949350505050565b5f819050919050565b6125ad8161259b565b82525050565b5f6020820190506125c65f8301846125a4565b92915050565b5f602082840312156125e1576125e0612247565b5b5f6125ee848285016122bf565b91505092915050565b6126008161226e565b82525050565b5f6020820190506126195f8301846125f7565b92915050565b5f819050919050565b5f61264261263d6126388461224f565b61261f565b61224f565b9050919050565b5f61265382612628565b9050919050565b5f61266482612649565b9050919050565b6126748161265a565b82525050565b5f60208201905061268d5f83018461266b565b92915050565b5f81519050919050565b5f82825260208201905092915050565b5f5b838110156126ca5780820151818401526020810190506126af565b5f8484015250505050565b5f6126df82612693565b6126e9818561269d565b93506126f98185602086016126ad565b612702816123be565b840191505092915050565b5f6020820190508181035f83015261272581846126d5565b905092915050565b5f806040838503121561274357612742612247565b5b5f61275085828601612377565b925050602061276185828601612295565b9150509250929050565b5f60208201905061277e5f830184612557565b92915050565b61278d8161254c565b8114612797575f80fd5b50565b5f813590506127a881612784565b92915050565b5f80604083850312156127c4576127c3612247565b5b5f6127d185828601612377565b92505060206127e28582860161279a565b9150509250929050565b5f6127f682612649565b9050919050565b612806816127ec565b82525050565b5f60208201905061281f5f8301846127fd565b92915050565b5f819050919050565b5f61284861284361283e84612825565b61261f565b61234e565b9050919050565b6128588161282e565b82525050565b5f6020820190506128715f83018461284f565b92915050565b7f6e6f7468696e67207374616b65640000000000000000000000000000000000005f82015250565b5f6128ab600e8361269d565b91506128b682612877565b602082019050919050565b5f6020820190508181035f8301526128d88161289f565b9050919050565b7f4e487b71000000000000000000000000000000000000000000000000000000005f52603260045260245ffd5b7f4e487b71000000000000000000000000000000000000000000000000000000005f52601160045260245ffd5b5f6129438261220d565b915061294e8361220d565b92508282039050818111156129665761296561290c565b5b92915050565b7f4e487b71000000000000000000000000000000000000000000000000000000005f52603160045260245ffd5b7f726f756e6420616c7265616479206f70656e00000000000000000000000000005f82015250565b5f6129cd60128361269d565b91506129d882612999565b602082019050919050565b5f6020820190508181035f8301526129fa816129c1565b9050919050565b7f6e6f2076616c696461746f7273207374616b65640000000000000000000000005f82015250565b5f612a3560148361269d565b9150612a4082612a01565b602082019050919050565b5f6020820190508181035f830152612a6281612a29565b9050919050565b7f62656c6f77206d696e207374616b6500000000000000000000000000000000005f82015250565b5f612a9d600f8361269d565b9150612aa882612a69565b602082019050919050565b5f6020820190508181035f830152612aca81612a91565b9050919050565b5f612adb8261220d565b9150612ae68361220d565b9250828201905080821115612afe57612afd61290c565b5b92915050565b7f6e6f206f70656e20726f756e64000000000000000000000000000000000000005f82015250565b5f612b38600d8361269d565b9150612b4382612b04565b602082019050919050565b5f6020820190508181035f830152612b6581612b2c565b9050919050565b7f6e6f74207374616b6564000000000000000000000000000000000000000000005f82015250565b5f612ba0600a8361269d565b9150612bab82612b6c565b602082019050919050565b5f6020820190508181035f830152612bcd81612b94565b9050919050565b7f616c726561647920766f746564000000000000000000000000000000000000005f82015250565b5f612c08600d8361269d565b9150612c1382612bd4565b602082019050919050565b5f6020820190508181035f830152612c3581612bfc565b9050919050565b5f612c468261220d565b91507fffffffffffffffffffffffffffffffffffffffffffffffffffffffffffffffff8203612c7857612c7761290c565b5b600182019050919050565b612c8c8161259b565b8114612c96575f80fd5b50565b5f81519050612ca781612c83565b92915050565b5f60208284031215612cc257612cc1612247565b5b5f612ccf84828501612c99565b91505092915050565b5f612ce28261220d565b9150612ced8361220d565b9250828202612cfb8161220d565b91508282048414831517612d1257612d1161290c565b5b5092915050565b7f4e487b71000000000000000000000000000000000000000000000000000000005f52601260045260245ffd5b5f612d508261220d565b9150612d5b8361220d565b925082612d6b57612d6a612d19565b5b828204905092915050565b612d7f8161234e565b82525050565b5f602082019050612d985f830184612d76565b92915050565b5f81519050612dac816122a9565b92915050565b5f60208284031215612dc757612dc6612247565b5b5f612dd484828501612d9e565b9150509291505056fea26469706673582212202687328de83ca113ed20d3dab952c63055b80d9a1c0b2ffef3cec6a86707852e64736f6c63430008180033",
  "linkReferences": {},
  "deployedLinkReferences": {}
}