{
  "_format": "hh-sol-artifact-1",
  "contractName": "AgenticCommerce",
  "sourceName": "src/AgenticCommerce.sol",
  "abi": [
    {
      "inputs": [
        {
          "internalType": "address",
          "name": "target",
          "type": "address"
        }
      ],
      "name": "AddressEmptyCode",
      "type": "error"
    },
    {
      "inputs": [
        {
          "internalType": "address",
          "name": "implementation",
          "type": "address"
        }
      ],
      "name": "ERC1967InvalidImplementation",
      "type": "error"
    },
    {
      "inputs": [],
      "name": "ERC1967NonPayable",
      "type": "error"
    },
    {
      "inputs": [],
      "name": "FailedCall",
      "type": "error"
    },
    {
      "inputs": [],
      "name": "InvalidInitialization",
      "type": "error"
    },
    {
      "inputs": [],
      "name": "NotInitializing",
      "type": "error"
    },
    {
      "inputs": [
        {
          "internalType": "address",
          "name": "owner",
          "type": "address"
        }
      ],
      "name": "OwnableInvalidOwner",
      "type": "error"
    },
    {
      "inputs": [
        {
          "internalType": "address",
          "name": "account",
          "type": "address"
        }
      ],
      "name": "OwnableUnauthorizedAccount",
      "type": "error"
    },
    {
      "inputs": [
        {
          "internalType": "address",
          "name": "token",
          "type": "address"
        }
      ],
      "name": "SafeERC20FailedOperation",
      "type": "error"
    },
    {
      "inputs": [],
      "name": "UUPSUnauthorizedCallContext",
      "type": "error"
    },
    {
      "inputs": [
        {
          "internalType": "bytes32",
          "name": "slot",
          "type": "bytes32"
        }
      ],
      "name": "UUPSUnsupportedProxiableUUID",
      "type": "error"
    },
    {
      "anonymous": false,
      "inputs": [
        {
          "indexed": false,
          "internalType": "uint64",
          "name": "version",
          "type": "uint64"
        }
      ],
      "name": "Initialized",
      "type": "event"
    },
    {
      "anonymous": false,
      "inputs": [
        {
          "indexed": true,
          "internalType": "address",
          "name": "client",
          "type": "address"
        },
        {
          "indexed": false,
          "internalType": "uint64",
          "name": "jobId",
          "type": "uint64"
        }
      ],
      "name": "JobCancelled",
      "type": "event"
    },
    {
      "anonymous": false,
      "inputs": [
        {
          "indexed": true,
          "internalType": "address",
          "name": "evaluator",
          "type": "address"
        },
        {
          "indexed": false,
          "internalType": "uint64",
          "name": "jobId",
          "type": "uint64"
        },
        {
          "indexed": false,
          "internalType": "uint256",
          "name": "payout",
          "type": "uint256"
        },
        {
          "indexed": false,
          "internalType": "uint256",
          "name": "fee",
          "type": "uint256"
        }
      ],
      "name": "JobCompleted",
      "type": "event"
    },
    {
      "anonymous": false,
      "inputs": [
        {
          "indexed": true,
          "internalType": "address",
          "name": "client",
          "type": "address"
        },
        {
          "indexed": false,
          "internalType": "uint64",
          "name": "jobId",
          "type": "uint64"
        },
        {
          "indexed": false,
          "internalType": "uint256",
          "name": "budget",
          "type": "uint256"
        }
      ],
      "name": "JobCreated",
      "type": "event"
    },
    {
      "anonymous": false,
      "inputs": [
        {
          "indexed": true,
          "internalType": "address",
          "name": "evaluator",
          "type": "address"
        },
        {
          "indexed": false,
          "internalType": "uint64",
          "name": "jobId",
          "type": "uint64"
        }
      ],
      "name": "JobRejected",
      "type": "event"
    },
    {
      "anonymous": false,
      "inputs": [
        {
          "indexed": true,
          "internalType": "address",
          "name": "provider",
          "type": "address"
        },
        {
          "indexed": false,
          "internalType": "uint64",
          "name": "jobId",
          "type": "uint64"
        }
      ],
      "name": "JobSubmitted",
      "type": "event"
    },
    {
      "anonymous": false,
      "inputs": [
        {
          "indexed": true,
          "internalType": "address",
          "name": "previousOwner",
          "type": "address"
        },
        {
          "indexed": true,
          "internalType": "address",
          "name": "newOwner",
          "type": "address"
        }
      ],
      "name": "OwnershipTransferred",
      "type": "event"
    },
    {
      "anonymous": false,
      "inputs": [
        {
          "indexed": true,
          "internalType": "address",
          "name": "implementation",
          "type": "address"
        }
      ],
      "name": "Upgraded",
      "type": "event"
    },
    {
      "inputs": [],
      "name": "MAX_FEE_BPS",
      "outputs": [
        {
          "internalType": "uint16",
          "name": "",
          "type": "uint16"
        }
      ],
      "stateMutability": "view",
      "type": "function"
    },
    {
      "inputs": [],
      "name": "UPGRADE_INTERFACE_VERSION",
      "outputs": [
        {
          "internalType": "string",
          "name": "",
          "type": "string"
        }
      ],
      "stateMutability": "view",
      "type": "function"
    },
    {
      "inputs": [
        {
          "internalType": "uint64",
          "name": "id",
          "type": "uint64"
        }
      ],
      "name": "cancel",
      "outputs": [],
      "stateMutability": "nonpayable",
      "type": "function"
    },
    {
      "inputs": [
        {
          "internalType": "uint64",
          "name": "id",
          "type": "uint64"
        }
      ],
      "name": "complete",
      "outputs": [],
      "stateMutability": "nonpayable",
      "type": "function"
    },
    {
      "inputs": [
        {
          "internalType": "address",
          "name": "provider",
          "type": "address"
        },
        {
          "internalType": "address",
          "name": "evaluator",
          "type": "address"
        },
        {
          "internalType": "address",
          "name": "token",
          "type": "address"
        },
        {
          "internalType": "uint256",
          "name": "budget",
          "type": "uint256"
        },
        {
          "internalType": "string",
          "name": "description",
          "type": "string"
        }
      ],
      "name": "createJob",
      "outputs": [
        {
          "internalType": "uint64",
          "name": "",
          "type": "uint64"
        }
      ],
      "stateMutability": "nonpayable",
      "type": "function"
    },
    {
      "inputs": [],
      "name": "feeBps",
      "outputs": [
        {
          "internalType": "uint16",
          "name": "",
          "type": "uint16"
        }
      ],
      "stateMutability": "view",
      "type": "function"
    },
    {
      "inputs": [
        {
          "internalType": "uint64",
          "name": "id",
          "type": "uint64"
        }
      ],
      "name": "getJob",
      "outputs": [
        {
          "components": [
            {
              "internalType": "uint64",
              "name": "id",
              "type": "uint64"
            },
            {
              "internalType": "address",
              "name": "client",
              "type": "address"
            },
            {
              "internalType": "address",
              "name": "provider",
              "type": "address"
            },
            {
              "internalType": "address",
              "name": "evaluator",
              "type": "address"
            },
            {
              "internalType": "address",
              "name": "token",
              "type": "address"
            },
            {
              "internalType": "uint256",
              "name": "budget",
              "type": "uint256"
            },
            {
              "internalType": "enum AgenticCommerce.JobStatus",
              "name": "status",
              "type": "uint8"
            },
            {
              "internalType": "string",
              "name": "description",
              "type": "string"
            },
            {
              "internalType": "string",
              "name": "deliverable",
              "type": "string"
            }
          ],
          "internalType": "struct AgenticCommerce.Job",
          "name": "",
          "type": "tuple"
        }
      ],
      "stateMutability": "view",
      "type": "function"
    },
    {
      "inputs": [
        {
          "internalType": "address",
          "name": "_treasury",
          "type": "address"
        }
      ],
      "name": "initialize",
      "outputs": [],
      "stateMutability": "nonpayable",
      "type": "function"
    },
    {
      "inputs": [],
      "name": "owner",
      "outputs": [
        {
          "internalType": "address",
          "name": "",
          "type": "address"
        }
      ],
      "stateMutability": "view",
      "type": "function"
    },
    {
      "inputs": [],
      "name": "proxiableUUID",
      "outputs": [
        {
          "internalType": "bytes32",
          "name": "",
          "type": "bytes32"
        }
      ],
      "stateMutability": "view",
      "type": "function"
    },
    {
      "inputs": [
        {
          "internalType": "uint64",
          "name": "id",
          "type": "uint64"
        }
      ],
      "name": "reject",
      "outputs": [],
      "stateMutability": "nonpayable",
      "type": "function"
    },
    {
      "inputs": [],
      "name": "renounceOwnership",
      "outputs": [],
      "stateMutability": "nonpayable",
      "type": "function"
    },
    {
      "inputs": [
        {
          "internalType": "uint16",
          "name": "newBps",
          "type": "uint16"
        }
      ],
      "name": "setFeeBps",
      "outputs": [],
      "stateMutability": "nonpayable",
      "type": "function"
    },
    {
      "inputs": [
        {
          "internalType": "address",
          "name": "newTreasury",
          "type": "address"
        }
      ],
      "name": "setTreasury",
      "outputs": [],
      "stateMutability": "nonpayable",
      "type": "function"
    },
    {
      "inputs": [
        {
          "internalType": "uint64",
          "name": "id",
          "type": "uint64"
        },
        {
          "internalType": "string",
          "name": "deliverable",
          "type": "string"
        }
      ],
      "name": "submit",
      "outputs": [],
      "stateMutability": "nonpayable",
      "type": "function"
    },
    {
      "inputs": [
        {
          "internalType": "address",
          "name": "newOwner",
          "type": "address"
        }
      ],
      "name": "transferOwnership",
      "outputs": [],
      "stateMutability": "nonpayable",
      "type": "function"
    },
    {
      "inputs": [],
      "name": "treasury",
      "outputs": [
        {
          "internalType": "address",
          "name": "",
          "type": "address"
        }
      ],
      "stateMutability": "view",
      "type": "function"
    },
    {
      "inputs": [
        {
          "internalType": "address",
          "name": "newImplementation",
          "type": "address"
        },
        {
          "internalType": "bytes",
          "name": "data",
          "type": "bytes"
        }
      ],
      "name": "upgradeToAndCall",
      "outputs": [],
      "stateMutability": "payable",
      "type": "function"
    }
  ],
  "bytecode": "0x60a06040523073ffffffffffffffffffffffffffffffffffffffff1660809073ffffffffffffffffffffffffffffffffffffffff16815250348015610042575f80fd5b506080516135c46100695f395f8181611b3501528181611b8a0152611d4401526135c45ff3fe608060405260043610610107575f3560e01c8063715018a611610094578063c4d66de811610063578063c4d66de814610327578063d55be8c61461034f578063f0f4426014610379578063f2fde38b146103a1578063f682ddbf146103c957610107565b8063715018a61461028157806387ab7c29146102975780638da5cb5b146102d3578063ad3cb1cc146102fd57610107565b80634c125e79116100db5780634c125e79146101c15780634f1ef286146101e95780635044a7601461020557806352d1902d1461022d57806361d027b31461025757610107565b8062dfc6bc1461010b578063023b1fc914610147578063185943441461016f57806324a9d85314610197575b5f80fd5b348015610116575f80fd5b50610131600480360381019061012c9190612530565b6103f1565b60405161013e9190612787565b60405180910390f35b348015610152575f80fd5b5061016d600480360381019061016891906127de565b6107ce565b005b34801561017a575f80fd5b506101956004803603810190610190919061286a565b610843565b005b3480156101a2575f80fd5b506101ab610a06565b6040516101b891906128d6565b60405180910390f35b3480156101cc575f80fd5b506101e760048036038101906101e29190612530565b610a1a565b005b61020360048036038101906101fe9190612a41565b610c8e565b005b348015610210575f80fd5b5061022b60048036038101906102269190612530565b610cad565b005b348015610238575f80fd5b50610241610f22565b60405161024e9190612ab3565b60405180910390f35b348015610262575f80fd5b5061026b610f53565b6040516102789190612adb565b60405180910390f35b34801561028c575f80fd5b50610295610f78565b005b3480156102a2575f80fd5b506102bd60048036038101906102b89190612b1e565b610f8b565b6040516102ca9190612bc3565b60405180910390f35b3480156102de575f80fd5b506102e76113d1565b6040516102f49190612adb565b60405180910390f35b348015610308575f80fd5b50610311611406565b60405161031e9190612c24565b60405180910390f35b348015610332575f80fd5b5061034d60048036038101906103489190612c44565b61143f565b005b34801561035a575f80fd5b5061036361164e565b60405161037091906128d6565b60405180910390f35b348015610384575f80fd5b5061039f600480360381019061039a9190612c44565b611654565b005b3480156103ac575f80fd5b506103c760048036038101906103c29190612c44565b61169f565b005b3480156103d4575f80fd5b506103ef60048036038101906103ea9190612530565b611723565b005b6103f9612429565b5f73ffffffffffffffffffffffffffffffffffffffff1660025f8467ffffffffffffffff1667ffffffffffffffff1681526020019081526020015f205f0160089054906101000a900473ffffffffffffffffffffffffffffffffffffffff1673ffffffffffffffffffffffffffffffffffffffff16036104ae576040517f08c379a00000000000000000000000000000000000000000000000000000000081526004016104a590612cb9565b60405180910390fd5b60025f8367ffffffffffffffff1667ffffffffffffffff1681526020019081526020015f20604051806101200160405290815f82015f9054906101000a900467ffffffffffffffff1667ffffffffffffffff1667ffffffffffffffff1681526020015f820160089054906101000a900473ffffffffffffffffffffffffffffffffffffffff1673ffffffffffffffffffffffffffffffffffffffff1673ffffffffffffffffffffffffffffffffffffffff168152602001600182015f9054906101000a900473ffffffffffffffffffffffffffffffffffffffff1673ffffffffffffffffffffffffffffffffffffffff1673ffffffffffffffffffffffffffffffffffffffff168152602001600282015f9054906101000a900473ffffffffffffffffffffffffffffffffffffffff1673ffffffffffffffffffffffffffffffffffffffff1673ffffffffffffffffffffffffffffffffffffffff168152602001600382015f9054906101000a900473ffffffffffffffffffffffffffffffffffffffff1673ffffffffffffffffffffffffffffffffffffffff1673ffffffffffffffffffffffffffffffffffffffff16815260200160048201548152602001600582015f9054906101000a900460ff166004811115610691576106906125c1565b5b60048111156106a3576106a26125c1565b5b81526020016006820180546106b790612d04565b80601f01602080910402602001604051908101604052809291908181526020018280546106e390612d04565b801561072e5780601f106107055761010080835404028352916020019161072e565b820191905f5260205f20905b81548152906001019060200180831161071157829003601f168201915b5050505050815260200160078201805461074790612d04565b80601f016020809104026020016040519081016040528092919081815260200182805461077390612d04565b80156107be5780601f10610795576101008083540402835291602001916107be565b820191905f5260205f20905b8154815290600101906020018083116107a157829003601f168201915b5050505050815250509050919050565b6107d6611a59565b6101f461ffff168161ffff161115610823576040517f08c379a000000000000000000000000000000000000000000000000000000000815260040161081a90612d7e565b60405180910390fd5b80600160146101000a81548161ffff021916908361ffff16021790555050565b5f60025f8567ffffffffffffffff1667ffffffffffffffff1681526020019081526020015f209050806001015f9054906101000a900473ffffffffffffffffffffffffffffffffffffffff1673ffffffffffffffffffffffffffffffffffffffff163373ffffffffffffffffffffffffffffffffffffffff16146108fc576040517f08c379a00000000000000000000000000000000000000000000000000000000081526004016108f390612de6565b60405180910390fd5b5f600481111561090f5761090e6125c1565b5b816005015f9054906101000a900460ff166004811115610932576109316125c1565b5b14610972576040517f08c379a000000000000000000000000000000000000000000000000000000000815260040161096990612e4e565b60405180910390fd5b6001816005015f6101000a81548160ff02191690836004811115610999576109986125c1565b5b021790555082828260070191826109b1929190613013565b503373ffffffffffffffffffffffffffffffffffffffff167f2a6804adb0fa018e20a492e5228ef08e583059ef58b8087f8476a98b50e1d435856040516109f89190612bc3565b60405180910390a250505050565b600160149054906101000a900461ffff1681565b60025f5403610a5e576040517f08c379a0000000000000000000000000000000000000000000000000000000008152600401610a559061312a565b60405180910390fd5b60025f819055505f60025f8367ffffffffffffffff1667ffffffffffffffff1681526020019081526020015f209050805f0160089054906101000a900473ffffffffffffffffffffffffffffffffffffffff1673ffffffffffffffffffffffffffffffffffffffff163373ffffffffffffffffffffffffffffffffffffffff1614610b1e576040517f08c379a0000000000000000000000000000000000000000000000000000000008152600401610b1590613192565b60405180910390fd5b5f6004811115610b3157610b306125c1565b5b816005015f9054906101000a900460ff166004811115610b5457610b536125c1565b5b14610b94576040517f08c379a0000000000000000000000000000000000000000000000000000000008152600401610b8b90612e4e565b60405180910390fd5b6004816005015f6101000a81548160ff02191690836004811115610bbb57610bba6125c1565b5b0217905550610c35815f0160089054906101000a900473ffffffffffffffffffffffffffffffffffffffff168260040154836003015f9054906101000a900473ffffffffffffffffffffffffffffffffffffffff1673ffffffffffffffffffffffffffffffffffffffff16611ae09092919063ffffffff16565b3373ffffffffffffffffffffffffffffffffffffffff167f8bde3d86f1c70abc431b6803c4b9440308881010f0041dad1793cd23f6c0329683604051610c7b9190612bc3565b60405180910390a25060015f8190555050565b610c96611b33565b610c9f82611c19565b610ca98282611c24565b5050565b60025f5403610cf1576040517f08c379a0000000000000000000000000000000000000000000000000000000008152600401610ce89061312a565b60405180910390fd5b60025f819055505f60025f8367ffffffffffffffff1667ffffffffffffffff1681526020019081526020015f209050806002015f9054906101000a900473ffffffffffffffffffffffffffffffffffffffff1673ffffffffffffffffffffffffffffffffffffffff163373ffffffffffffffffffffffffffffffffffffffff1614610db1576040517f08c379a0000000000000000000000000000000000000000000000000000000008152600401610da8906131fa565b60405180910390fd5b60016004811115610dc557610dc46125c1565b5b816005015f9054906101000a900460ff166004811115610de857610de76125c1565b5b14610e28576040517f08c379a0000000000000000000000000000000000000000000000000000000008152600401610e1f90612e4e565b60405180910390fd5b6003816005015f6101000a81548160ff02191690836004811115610e4f57610e4e6125c1565b5b0217905550610ec9815f0160089054906101000a900473ffffffffffffffffffffffffffffffffffffffff168260040154836003015f9054906101000a900473ffffffffffffffffffffffffffffffffffffffff1673ffffffffffffffffffffffffffffffffffffffff16611ae09092919063ffffffff16565b3373ffffffffffffffffffffffffffffffffffffffff167fb06c5f140e28a782528aba1d2a03f90921c6a71788de12a05216fefb3c60c6ab83604051610f0f9190612bc3565b60405180910390a25060015f8190555050565b5f610f2b611d42565b7f360894a13ba1a3210667c828492db98dca3e2076cc3735a920a3ca505d382bbc5f1b905090565b60015f9054906101000a900473ffffffffffffffffffffffffffffffffffffffff1681565b610f80611a59565b610f895f611dc9565b565b5f60025f5403610fd0576040517f08c379a0000000000000000000000000000000000000000000000000000000008152600401610fc79061312a565b60405180910390fd5b60025f819055505f8411611019576040517f08c379a000000000000000000000000000000000000000000000000000000000815260040161101090613262565b60405180910390fd5b6110463330868873ffffffffffffffffffffffffffffffffffffffff16611e9a909392919063ffffffff16565b5f6001601681819054906101000a900467ffffffffffffffff168092919061106d906132ad565b91906101000a81548167ffffffffffffffff021916908367ffffffffffffffff16021790555090506040518061012001604052808267ffffffffffffffff1681526020013373ffffffffffffffffffffffffffffffffffffffff1681526020018973ffffffffffffffffffffffffffffffffffffffff1681526020018873ffffffffffffffffffffffffffffffffffffffff1681526020018773ffffffffffffffffffffffffffffffffffffffff1681526020018681526020015f600481111561113a576111396125c1565b5b815260200185858080601f0160208091040260200160405190810160405280939291908181526020018383808284375f81840152601f19601f82011690508083019250505050505050815260200160405180602001604052805f81525081525060025f8367ffffffffffffffff1667ffffffffffffffff1681526020019081526020015f205f820151815f015f6101000a81548167ffffffffffffffff021916908367ffffffffffffffff1602179055506020820151815f0160086101000a81548173ffffffffffffffffffffffffffffffffffffffff021916908373ffffffffffffffffffffffffffffffffffffffff1602179055506040820151816001015f6101000a81548173ffffffffffffffffffffffffffffffffffffffff021916908373ffffffffffffffffffffffffffffffffffffffff1602179055506060820151816002015f6101000a81548173ffffffffffffffffffffffffffffffffffffffff021916908373ffffffffffffffffffffffffffffffffffffffff1602179055506080820151816003015f6101000a81548173ffffffffffffffffffffffffffffffffffffffff021916908373ffffffffffffffffffffffffffffffffffffffff16021790555060a0820151816004015560c0820151816005015f6101000a81548160ff02191690836004811115611337576113366125c1565b5b021790555060e082015181600601908161135191906132dc565b5061010082015181600701908161136891906132dc565b509050503373ffffffffffffffffffffffffffffffffffffffff167fedd9984629b566227bd7c5fc76c53ebaf323f2fcdf9a4ad4d1e041999712e7fb82876040516113b49291906133ba565b60405180910390a28091505060015f819055509695505050505050565b5f806113db611eef565b9050805f015f9054906101000a900473ffffffffffffffffffffffffffffffffffffffff1691505090565b6040518060400160405280600581526020017f352e302e3000000000000000000000000000000000000000000000000000000081525081565b5f611448611f16565b90505f815f0160089054906101000a900460ff161590505f825f015f9054906101000a900467ffffffffffffffff1690505f808267ffffffffffffffff161480156114905750825b90505f60018367ffffffffffffffff161480156114c357505f3073ffffffffffffffffffffffffffffffffffffffff163b145b9050811580156114d1575080155b15611508576040517ff92ee8a900000000000000000000000000000000000000000000000000000000815260040160405180910390fd5b6001855f015f6101000a81548167ffffffffffffffff021916908367ffffffffffffffff1602179055508315611555576001855f0160086101000a81548160ff0219169083151502179055505b61155e33611f29565b8560015f6101000a81548173ffffffffffffffffffffffffffffffffffffffff021916908373ffffffffffffffffffffffffffffffffffffffff16021790555060015f819055506064600160146101000a81548161ffff021916908361ffff16021790555060018060166101000a81548167ffffffffffffffff021916908367ffffffffffffffff1602179055508315611646575f855f0160086101000a81548160ff0219169083151502179055507fc7f505b2f371ae2175ee4913f4499e1f2633a7b5936321eed1cdaeb6115181d2600160405161163d919061341a565b60405180910390a15b505050505050565b6101f481565b61165c611a59565b8060015f6101000a81548173ffffffffffffffffffffffffffffffffffffffff021916908373ffffffffffffffffffffffffffffffffffffffff16021790555050565b6116a7611a59565b5f73ffffffffffffffffffffffffffffffffffffffff168173ffffffffffffffffffffffffffffffffffffffff1603611717575f6040517f1e4fbdf700000000000000000000000000000000000000000000000000000000815260040161170e9190612adb565b60405180910390fd5b61172081611dc9565b50565b60025f5403611767576040517f08c379a000000000000000000000000000000000000000000000000000000000815260040161175e9061312a565b60405180910390fd5b60025f819055505f60025f8367ffffffffffffffff1667ffffffffffffffff1681526020019081526020015f209050806002015f9054906101000a900473ffffffffffffffffffffffffffffffffffffffff1673ffffffffffffffffffffffffffffffffffffffff163373ffffffffffffffffffffffffffffffffffffffff1614611827576040517f08c379a000000000000000000000000000000000000000000000000000000000815260040161181e906131fa565b60405180910390fd5b6001600481111561183b5761183a6125c1565b5b816005015f9054906101000a900460ff16600481111561185e5761185d6125c1565b5b1461189e576040517f08c379a000000000000000000000000000000000000000000000000000000000815260040161189590612e4e565b60405180910390fd5b5f612710600160149054906101000a900461ffff1661ffff1683600401546118c69190613433565b6118d091906134a1565b90505f8183600401546118e391906134d1565b90506002836005015f6101000a81548160ff0219169083600481111561190c5761190b6125c1565b5b0217905550611982836001015f9054906101000a900473ffffffffffffffffffffffffffffffffffffffff1682856003015f9054906101000a900473ffffffffffffffffffffffffffffffffffffffff1673ffffffffffffffffffffffffffffffffffffffff16611ae09092919063ffffffff16565b5f8211156119fa576119f960015f9054906101000a900473ffffffffffffffffffffffffffffffffffffffff1683856003015f9054906101000a900473ffffffffffffffffffffffffffffffffffffffff1673ffffffffffffffffffffffffffffffffffffffff16611ae09092919063ffffffff16565b5b3373ffffffffffffffffffffffffffffffffffffffff167f95456999f64c5be4a3df786a6f4f1d09ce7bbcc98fc64696ffbf8bb7c9c90f6c858385604051611a4493929190613504565b60405180910390a250505060015f8190555050565b611a61611f3d565b73ffffffffffffffffffffffffffffffffffffffff16611a7f6113d1565b73ffffffffffffffffffffffffffffffffffffffff1614611ade57611aa2611f3d565b6040517f118cdaa7000000000000000000000000000000000000000000000000000000008152600401611ad59190612adb565b60405180910390fd5b565b611aed8383836001611f44565b611b2e57826040517f5274afe7000000000000000000000000000000000000000000000000000000008152600401611b259190612adb565b60405180910390fd5b505050565b7f000000000000000000000000000000000000000000000000000000000000000073ffffffffffffffffffffffffffffffffffffffff163073ffffffffffffffffffffffffffffffffffffffff161480611be057507f000000000000000000000000000000000000000000000000000000000000000073ffffffffffffffffffffffffffffffffffffffff16611bc7611fa6565b73ffffffffffffffffffffffffffffffffffffffff1614155b15611c17576040517fe07c8dba00000000000000000000000000000000000000000000000000000000815260040160405180910390fd5b565b611c21611a59565b50565b8173ffffffffffffffffffffffffffffffffffffffff166352d1902d6040518163ffffffff1660e01b8152600401602060405180830381865afa925050508015611c8c57506040513d601f19601f82011682018060405250810190611c899190613563565b60015b611ccd57816040517f4c9c8ce3000000000000000000000000000000000000000000000000000000008152600401611cc49190612adb565b60405180910390fd5b7f360894a13ba1a3210667c828492db98dca3e2076cc3735a920a3ca505d382bbc5f1b8114611d3357806040517faa1d49a4000000000000000000000000000000000000000000000000000000008152600401611d2a9190612ab3565b60405180910390fd5b611d3d8383611ff9565b505050565b7f000000000000000000000000000000000000000000000000000000000000000073ffffffffffffffffffffffffffffffffffffffff163073ffffffffffffffffffffffffffffffffffffffff1614611dc7576040517fe07c8dba00000000000000000000000000000000000000000000000000000000815260040160405180910390fd5b565b5f611dd2611eef565b90505f815f015f9054906101000a900473ffffffffffffffffffffffffffffffffffffffff16905082825f015f6101000a81548173ffffffffffffffffffffffffffffffffffffffff021916908373ffffffffffffffffffffffffffffffffffffffff1602179055508273ffffffffffffffffffffffffffffffffffffffff168173ffffffffffffffffffffffffffffffffffffffff167f8be0079c531659141344cd1fd0a4f28419497f9722a3daafe3b4186f6b6457e060405160405180910390a3505050565b611ea884848484600161206b565b611ee957836040517f5274afe7000000000000000000000000000000000000000000000000000000008152600401611ee09190612adb565b60405180910390fd5b50505050565b5f7f9016d09d72d40fdae2fd8ceac6b6234c7706214fd39c1cd1e609a0528c199300905090565b5f80611f206120dc565b90508091505090565b611f31612105565b611f3a81612145565b50565b5f33905090565b5f8063a9059cbb60e01b9050604051815f525f1960601c86166004528460245260205f60445f808b5af1925060015f51148316611f98578383151615611f8c573d5f823e3d81fd5b5f873b113d1516831692505b806040525050949350505050565b5f611fd27f360894a13ba1a3210667c828492db98dca3e2076cc3735a920a3ca505d382bbc5f1b6121c9565b5f015f9054906101000a900473ffffffffffffffffffffffffffffffffffffffff16905090565b612002826121d2565b8173ffffffffffffffffffffffffffffffffffffffff167fbc7cd75a20ee27fd9adebab32041f755214dbc6bffa90cc0225b39da2e5c2d3b60405160405180910390a25f8151111561205e57612058828261229b565b50612067565b61206661238c565b5b5050565b5f806323b872dd60e01b9050604051815f525f1960601c87166004525f1960601c86166024528460445260205f60645f808c5af1925060015f511483166120c95783831516156120bd573d5f823e3d81fd5b5f883b113d1516831692505b806040525f606052505095945050505050565b5f7ff0c57e16840df040f15088dc2f81fe391c3923bec73e23a9662efc9c229c6a005f1b905090565b61210d6123c8565b612143576040517fd7e6bcf800000000000000000000000000000000000000000000000000000000815260040160405180910390fd5b565b61214d612105565b5f73ffffffffffffffffffffffffffffffffffffffff168173ffffffffffffffffffffffffffffffffffffffff16036121bd575f6040517f1e4fbdf70000000000000000000000000000000000000000000000000000000081526004016121b49190612adb565b60405180910390fd5b6121c681611dc9565b50565b5f819050919050565b5f8173ffffffffffffffffffffffffffffffffffffffff163b0361222d57806040517f4c9c8ce30000000000000000000000000000000000000000000000000000000081526004016122249190612adb565b60405180910390fd5b806122597f360894a13ba1a3210667c828492db98dca3e2076cc3735a920a3ca505d382bbc5f1b6121c9565b5f015f6101000a81548173ffffffffffffffffffffffffffffffffffffffff021916908373ffffffffffffffffffffffffffffffffffffffff16021790555050565b60605f6122a884846123e6565b90508080156122de57505f6122bb6123fa565b11806122dd57505f8473ffffffffffffffffffffffffffffffffffffffff163b115b5b156122f3576122eb612401565b915050612386565b801561233657836040517f9996b31500000000000000000000000000000000000000000000000000000000815260040161232d9190612adb565b60405180910390fd5b5f61233f6123fa565b11156123525761234d61241e565b612384565b6040517fd6bda27500000000000000000000000000000000000000000000000000000000815260040160405180910390fd5b505b92915050565b5f3411156123c6576040517fb398979f00000000000000000000000000000000000000000000000000000000815260040160405180910390fd5b565b5f6123d1611f16565b5f0160089054906101000a900460ff16905090565b5f805f835160208501865af4905092915050565b5f3d905090565b606060405190503d81523d5f602083013e3d602001810160405290565b6040513d5f823e3d81fd5b6040518061012001604052805f67ffffffffffffffff1681526020015f73ffffffffffffffffffffffffffffffffffffffff1681526020015f73ffffffffffffffffffffffffffffffffffffffff1681526020015f73ffffffffffffffffffffffffffffffffffffffff1681526020015f73ffffffffffffffffffffffffffffffffffffffff1681526020015f81526020015f60048111156124ce576124cd6125c1565b5b815260200160608152602001606081525090565b5f604051905090565b5f80fd5b5f80fd5b5f67ffffffffffffffff82169050919050565b61250f816124f3565b8114612519575f80fd5b50565b5f8135905061252a81612506565b92915050565b5f60208284031215612545576125446124eb565b5b5f6125528482850161251c565b91505092915050565b612564816124f3565b82525050565b5f73ffffffffffffffffffffffffffffffffffffffff82169050919050565b5f6125938261256a565b9050919050565b6125a381612589565b82525050565b5f819050919050565b6125bb816125a9565b82525050565b7f4e487b71000000000000000000000000000000000000000000000000000000005f52602160045260245ffd5b600581106125ff576125fe6125c1565b5b50565b5f81905061260f826125ee565b919050565b5f61261e82612602565b9050919050565b61262e81612614565b82525050565b5f81519050919050565b5f82825260208201905092915050565b5f5b8381101561266b578082015181840152602081019050612650565b5f8484015250505050565b5f601f19601f8301169050919050565b5f61269082612634565b61269a818561263e565b93506126aa81856020860161264e565b6126b381612676565b840191505092915050565b5f61012083015f8301516126d45f86018261255b565b5060208301516126e7602086018261259a565b5060408301516126fa604086018261259a565b50606083015161270d606086018261259a565b506080830151612720608086018261259a565b5060a083015161273360a08601826125b2565b5060c083015161274660c0860182612625565b5060e083015184820360e086015261275e8282612686565b91505061010083015184820361010086015261277a8282612686565b9150508091505092915050565b5f6020820190508181035f83015261279f81846126be565b905092915050565b5f61ffff82169050919050565b6127bd816127a7565b81146127c7575f80fd5b50565b5f813590506127d8816127b4565b92915050565b5f602082840312156127f3576127f26124eb565b5b5f612800848285016127ca565b91505092915050565b5f80fd5b5f80fd5b5f80fd5b5f8083601f84011261282a57612829612809565b5b8235905067ffffffffffffffff8111156128475761284661280d565b5b60208301915083600182028301111561286357612862612811565b5b9250929050565b5f805f60408486031215612881576128806124eb565b5b5f61288e8682870161251c565b935050602084013567ffffffffffffffff8111156128af576128ae6124ef565b5b6128bb86828701612815565b92509250509250925092565b6128d0816127a7565b82525050565b5f6020820190506128e95f8301846128c7565b92915050565b6128f881612589565b8114612902575f80fd5b50565b5f81359050612913816128ef565b92915050565b5f80fd5b7f4e487b71000000000000000000000000000000000000000000000000000000005f52604160045260245ffd5b61295382612676565b810181811067ffffffffffffffff821117156129725761297161291d565b5b80604052505050565b5f6129846124e2565b9050612990828261294a565b919050565b5f67ffffffffffffffff8211156129af576129ae61291d565b5b6129b882612676565b9050602081019050919050565b828183375f83830152505050565b5f6129e56129e084612995565b61297b565b905082815260208101848484011115612a0157612a00612919565b5b612a0c8482856129c5565b509392505050565b5f82601f830112612a2857612a27612809565b5b8135612a388482602086016129d3565b91505092915050565b5f8060408385031215612a5757612a566124eb565b5b5f612a6485828601612905565b925050602083013567ffffffffffffffff811115612a8557612a846124ef565b5b612a9185828601612a14565b9150509250929050565b5f819050919050565b612aad81612a9b565b82525050565b5f602082019050612ac65f830184612aa4565b92915050565b612ad581612589565b82525050565b5f602082019050612aee5f830184612acc565b92915050565b612afd816125a9565b8114612b07575f80fd5b50565b5f81359050612b1881612af4565b92915050565b5f805f805f8060a08789031215612b3857612b376124eb565b5b5f612b4589828a01612905565b9650506020612b5689828a01612905565b9550506040612b6789828a01612905565b9450506060612b7889828a01612b0a565b935050608087013567ffffffffffffffff811115612b9957612b986124ef565b5b612ba589828a01612815565b92509250509295509295509295565b612bbd816124f3565b82525050565b5f602082019050612bd65f830184612bb4565b92915050565b5f82825260208201905092915050565b5f612bf682612634565b612c008185612bdc565b9350612c1081856020860161264e565b612c1981612676565b840191505092915050565b5f6020820190508181035f830152612c3c8184612bec565b905092915050565b5f60208284031215612c5957612c586124eb565b5b5f612c6684828501612905565b91505092915050565b7f6a6f62206e6f7420666f756e64000000000000000000000000000000000000005f82015250565b5f612ca3600d83612bdc565b9150612cae82612c6f565b602082019050919050565b5f6020820190508181035f830152612cd081612c97565b9050919050565b7f4e487b71000000000000000000000000000000000000000000000000000000005f52602260045260245ffd5b5f6002820490506001821680612d1b57607f821691505b602082108103612d2e57612d2d612cd7565b5b50919050565b7f66656520746f6f206869676800000000000000000000000000000000000000005f82015250565b5f612d68600c83612bdc565b9150612d7382612d34565b602082019050919050565b5f6020820190508181035f830152612d9581612d5c565b9050919050565b7f6e6f742070726f766964657200000000000000000000000000000000000000005f82015250565b5f612dd0600c83612bdc565b9150612ddb82612d9c565b602082019050919050565b5f6020820190508181035f830152612dfd81612dc4565b9050919050565b7f696e76616c6964207374617475730000000000000000000000000000000000005f82015250565b5f612e38600e83612bdc565b9150612e4382612e04565b602082019050919050565b5f6020820190508181035f830152612e6581612e2c565b9050919050565b5f82905092915050565b5f819050815f5260205f209050919050565b5f6020601f8301049050919050565b5f82821b905092915050565b5f60088302612ed27fffffffffffffffffffffffffffffffffffffffffffffffffffffffffffffffff82612e97565b612edc8683612e97565b95508019841693508086168417925050509392505050565b5f819050919050565b5f612f17612f12612f0d846125a9565b612ef4565b6125a9565b9050919050565b5f819050919050565b612f3083612efd565b612f44612f3c82612f1e565b848454612ea3565b825550505050565b5f90565b612f58612f4c565b612f63818484612f27565b505050565b5b81811015612f8657612f7b5f82612f50565b600181019050612f69565b5050565b601f821115612fcb57612f9c81612e76565b612fa584612e88565b81016020851015612fb4578190505b612fc8612fc085612e88565b830182612f68565b50505b505050565b5f82821c905092915050565b5f612feb5f1984600802612fd0565b1980831691505092915050565b5f6130038383612fdc565b9150826002028217905092915050565b61301d8383612e6c565b67ffffffffffffffff8111156130365761303561291d565b5b6130408254612d04565b61304b828285612f8a565b5f601f831160018114613078575f8415613066578287013590505b6130708582612ff8565b8655506130d7565b601f19841661308686612e76565b5f5b828110156130ad57848901358255600182019150602085019450602081019050613088565b868310156130ca57848901356130c6601f891682612fdc565b8355505b6001600288020188555050505b50505050505050565b7f7265656e7472616e742063616c6c0000000000000000000000000000000000005f82015250565b5f613114600e83612bdc565b915061311f826130e0565b602082019050919050565b5f6020820190508181035f83015261314181613108565b9050919050565b7f6e6f7420636c69656e74000000000000000000000000000000000000000000005f82015250565b5f61317c600a83612bdc565b915061318782613148565b602082019050919050565b5f6020820190508181035f8301526131a981613170565b9050919050565b7f6e6f74206576616c7561746f72000000000000000000000000000000000000005f82015250565b5f6131e4600d83612bdc565b91506131ef826131b0565b602082019050919050565b5f6020820190508181035f830152613211816131d8565b9050919050565b7f627564676574206d75737420626520706f7369746976650000000000000000005f82015250565b5f61324c601783612bdc565b915061325782613218565b602082019050919050565b5f6020820190508181035f83015261327981613240565b9050919050565b7f4e487b71000000000000000000000000000000000000000000000000000000005f52601160045260245ffd5b5f6132b7826124f3565b915067ffffffffffffffff82036132d1576132d0613280565b5b600182019050919050565b6132e582612634565b67ffffffffffffffff8111156132fe576132fd61291d565b5b6133088254612d04565b613313828285612f8a565b5f60209050601f831160018114613344575f8415613332578287015190505b61333c8582612ff8565b8655506133a3565b601f19841661335286612e76565b5f5b8281101561337957848901518255600182019150602085019450602081019050613354565b868310156133965784890151613392601f891682612fdc565b8355505b6001600288020188555050505b505050505050565b6133b4816125a9565b82525050565b5f6040820190506133cd5f830185612bb4565b6133da60208301846133ab565b9392505050565b5f819050919050565b5f6134046133ff6133fa846133e1565b612ef4565b6124f3565b9050919050565b613414816133ea565b82525050565b5f60208201905061342d5f83018461340b565b92915050565b5f61343d826125a9565b9150613448836125a9565b9250828202613456816125a9565b9150828204841483151761346d5761346c613280565b5b5092915050565b7f4e487b71000000000000000000000000000000000000000000000000000000005f52601260045260245ffd5b5f6134ab826125a9565b91506134b6836125a9565b9250826134c6576134c5613474565b5b828204905092915050565b5f6134db826125a9565b91506134e6836125a9565b92508282039050818111156134fe576134fd613280565b5b92915050565b5f6060820190506135175f830186612bb4565b61352460208301856133ab565b61353160408301846133ab565b949350505050565b61354281612a9b565b811461354c575f80fd5b50565b5f8151905061355d81613539565b92915050565b5f60208284031215613578576135776124eb565b5b5f6135858482850161354f565b9150509291505056fea26469706673582212201420863125a37fef313271db44de0ce8016b8582574c19693a7640f42f0552fa64736f6c63430008180033",
  "linkReferences": {},
  "deployedLinkReferences": {}
}