{
  "_format": "hh-sol-artifact-1",
  "contractName": "AgentIdentity",
  "sourceName": "src/AgentIdentity.sol",
  "abi": [
    {
      "inputs": [
        {
          "internalType": "address",
          "name": "target",
          "type": "address"
        }
      ],
      "name": "AddressEmptyCode",
      "type": "error"
    },
    {
      "inputs": [
        {
          "internalType": "address",
          "name": "implementation",
          "type": "address"
        }
      ],
      "name": "ERC1967InvalidImplementation",
      "type": "error"
    },
    {
      "inputs": [],
      "name": "ERC1967NonPayable",
      "type": "error"
    },
    {
      "inputs": [
        {
          "internalType": "address",
          "name": "sender",
          "type": "address"
        },
        {
          "internalType": "uint256",
          "name": "tokenId",
          "type": "uint256"
        },
        {
          "internalType": "address",
          "name": "owner",
          "type": "address"
        }
      ],
      "name": "ERC721IncorrectOwner",
      "type": "error"
    },
    {
      "inputs": [
        {
          "internalType": "address",
          "name": "operator",
          "type": "address"
        },
        {
          "internalType": "uint256",
          "name": "tokenId",
          "type": "uint256"
        }
      ],
      "name": "ERC721InsufficientApproval",
      "type": "error"
    },
    {
      "inputs": [
        {
          "internalType": "address",
          "name": "approver",
          "type": "address"
        }
      ],
      "name": "ERC721InvalidApprover",
      "type": "error"
    },
    {
      "inputs": [
        {
          "internalType": "address",
          "name": "operator",
          "type": "address"
        }
      ],
      "name": "ERC721InvalidOperator",
      "type": "error"
    },
    {
      "inputs": [
        {
          "internalType": "address",
          "name": "owner",
          "type": "address"
        }
      ],
      "name": "ERC721InvalidOwner",
      "type": "error"
    },
    {
      "inputs": [
        {
          "internalType": "address",
          "name": "receiver",
          "type": "address"
        }
      ],
      "name": "ERC721InvalidReceiver",
      "type": "error"
    },
    {
      "inputs": [
        {
          "internalType": "address",
          "name": "sender",
          "type": "address"
        }
      ],
      "name": "ERC721InvalidSender",
      "type": "error"
    },
    {
      "inputs": [
        {
          "internalType": "uint256",
          "name": "tokenId",
          "type": "uint256"
        }
      ],
      "name": "ERC721NonexistentToken",
      "type": "error"
    },
    {
      "inputs": [],
      "name": "FailedCall",
      "type": "error"
    },
    {
      "inputs": [],
      "name": "InvalidInitialization",
      "type": "error"
    },
    {
      "inputs": [],
      "name": "NotInitializing",
      "type": "error"
    },
    {
      "inputs": [
        {
          "internalType": "address",
          "name": "owner",
          "type": "address"
        }
      ],
      "name": "OwnableInvalidOwner",
      "type": "error"
    },
    {
      "inputs": [
        {
          "internalType": "address",
          "name": "account",
          "type": "address"
        }
      ],
      "name": "OwnableUnauthorizedAccount",
      "type": "error"
    },
    {
      "inputs": [],
      "name": "UUPSUnauthorizedCallContext",
      "type": "error"
    },
    {
      "inputs": [
        {
          "internalType": "bytes32",
          "name": "slot",
          "type": "bytes32"
        }
      ],
      "name": "UUPSUnsupportedProxiableUUID",
      "type": "error"
    },
    {
      "anonymous": false,
      "inputs": [
        {
          "indexed": true,
          "internalType": "address",
          "name": "owner",
          "type": "address"
        },
        {
          "indexed": false,
          "internalType": "uint256",
          "name": "agentId",
          "type": "uint256"
        },
        {
          "indexed": false,
          "internalType": "string",
          "name": "agentURI",
          "type": "string"
        }
      ],
      "name": "AgentRegistered",
      "type": "event"
    },
    {
      "anonymous": false,
      "inputs": [
        {
          "indexed": true,
          "internalType": "uint256",
          "name": "agentId",
          "type": "uint256"
        },
        {
          "indexed": false,
          "internalType": "address",
          "name": "wallet",
          "type": "address"
        }
      ],
      "name": "AgentWalletSet",
      "type": "event"
    },
    {
      "anonymous": false,
      "inputs": [
        {
          "indexed": true,
          "internalType": "address",
          "name": "owner",
          "type": "address"
        },
        {
          "indexed": true,
          "internalType": "address",
          "name": "approved",
          "type": "address"
        },
        {
          "indexed": true,
          "internalType": "uint256",
          "name": "tokenId",
          "type": "uint256"
        }
      ],
      "name": "Approval",
      "type": "event"
    },
    {
      "anonymous": false,
      "inputs": [
        {
          "indexed": true,
          "internalType": "address",
          "name": "owner",
          "type": "address"
        },
        {
          "indexed": true,
          "internalType": "address",
          "name": "operator",
          "type": "address"
        },
        {
          "indexed": false,
          "internalType": "bool",
          "name": "approved",
          "type": "bool"
        }
      ],
      "name": "ApprovalForAll",
      "type": "event"
    },
    {
      "anonymous": false,
      "inputs": [
        {
          "indexed": false,
          "internalType": "uint256",
          "name": "_fromTokenId",
          "type": "uint256"
        },
        {
          "indexed": false,
          "internalType": "uint256",
          "name": "_toTokenId",
          "type": "uint256"
        }
      ],
      "name": "BatchMetadataUpdate",
      "type": "event"
    },
    {
      "anonymous": false,
      "inputs": [
        {
          "indexed": true,
          "internalType": "uint256",
          "name": "agentId",
          "type": "uint256"
        },
        {
          "indexed": true,
          "internalType": "address",
          "name": "client",
          "type": "address"
        },
        {
          "indexed": false,
          "internalType": "uint64",
          "name": "feedbackIndex",
          "type": "uint64"
        }
      ],
      "name": "FeedbackRevoked",
      "type": "event"
    },
    {
      "anonymous": false,
      "inputs": [
        {
          "indexed": false,
          "internalType": "uint64",
          "name": "version",
          "type": "uint64"
        }
      ],
      "name": "Initialized",
      "type": "event"
    },
    {
      "anonymous": false,
      "inputs": [
        {
          "indexed": true,
          "internalType": "uint256",
          "name": "agentId",
          "type": "uint256"
        },
        {
          "indexed": false,
          "internalType": "string",
          "name": "key",
          "type": "string"
        }
      ],
      "name": "MetadataSet",
      "type": "event"
    },
    {
      "anonymous": false,
      "inputs": [
        {
          "indexed": false,
          "internalType": "uint256",
          "name": "_tokenId",
          "type": "uint256"
        }
      ],
      "name": "MetadataUpdate",
      "type": "event"
    },
    {
      "anonymous": false,
      "inputs": [
        {
          "indexed": true,
          "internalType": "uint256",
          "name": "agentId",
          "type": "uint256"
        },
        {
          "indexed": true,
          "internalType": "address",
          "name": "client",
          "type": "address"
        },
        {
          "indexed": false,
          "internalType": "uint64",
          "name": "feedbackIndex",
          "type": "uint64"
        },
        {
          "indexed": false,
          "internalType": "int128",
          "name": "value",
          "type": "int128"
        },
        {
          "indexed": false,
          "internalType": "uint8",
          "name": "valueDecimals",
          "type": "uint8"
        },
        {
          "indexed": true,
          "internalType": "string",
          "name": "tag1",
          "type": "string"
        },
        {
          "indexed": false,
          "internalType": "string",
          "name": "tag1Plain",
          "type": "string"
        }
      ],
      "name": "NewFeedback",
      "type": "event"
    },
    {
      "anonymous": false,
      "inputs": [
        {
          "indexed": true,
          "internalType": "address",
          "name": "previousOwner",
          "type": "address"
        },
        {
          "indexed": true,
          "internalType": "address",
          "name": "newOwner",
          "type": "address"
        }
      ],
      "name": "OwnershipTransferred",
      "type": "event"
    },
    {
      "anonymous": false,
      "inputs": [
        {
          "indexed": true,
          "internalType": "address",
          "name": "from",
          "type": "address"
        },
        {
          "indexed": true,
          "internalType": "address",
          "name": "to",
          "type": "address"
        },
        {
          "indexed": true,
          "internalType": "uint256",
          "name": "tokenId",
          "type": "uint256"
        }
      ],
      "name": "Transfer",
      "type": "event"
    },
    {
      "anonymous": false,
      "inputs": [
        {
          "indexed": true,
          "internalType": "address",
          "name": "implementation",
          "type": "address"
        }
      ],
      "name": "Upgraded",
      "type": "event"
    },
    {
      "anonymous": false,
      "inputs": [
        {
          "indexed": true,
          "internalType": "bytes32",
          "name": "requestHash",
          "type": "bytes32"
        },
        {
          "indexed": true,
          "internalType": "address",
          "name": "validator",
          "type": "address"
        },
        {
          "indexed": true,
          "internalType": "uint256",
          "name": "agentId",
          "type": "uint256"
        }
      ],
      "name": "ValidationRequested",
      "type": "event"
    },
    {
      "anonymous": false,
      "inputs": [
        {
          "indexed": true,
          "internalType": "bytes32",
          "name": "requestHash",
          "type": "bytes32"
        },
        {
          "indexed": false,
          "internalType": "uint8",
          "name": "response",
          "type": "uint8"
        },
        {
          "indexed": false,
          "internalType": "string",
          "name": "tag",
          "type": "string"
        }
      ],
      "name": "ValidationResponded",
      "type": "event"
    },
    {
      "inputs": [],
      "name": "UPGRADE_INTERFACE_VERSION",
      "outputs": [
        {
          "internalType": "string",
          "name": "",
          "type": "string"
        }
      ],
      "stateMutability": "view",
      "type": "function"
    },
    {
      "inputs": [
        {
          "internalType": "address",
          "name": "to",
          "type": "address"
        },
        {
          "internalType": "uint256",
          "name": "tokenId",
          "type": "uint256"
        }
      ],
      "name": "approve",
      "outputs": [],
      "stateMutability": "nonpayable",
      "type": "function"
    },
    {
      "inputs": [
        {
          "internalType": "address",
          "name": "owner",
          "type": "address"
        }
      ],
      "name": "balanceOf",
      "outputs": [
        {
          "internalType": "uint256",
          "name": "",
          "type": "uint256"
        }
      ],
      "stateMutability": "view",
      "type": "function"
    },
    {
      "inputs": [
        {
          "internalType": "uint256",
          "name": "agentId",
          "type": "uint256"
        }
      ],
      "name": "getAgentWallet",
      "outputs": [
        {
          "internalType": "address",
          "name": "",
          "type": "address"
        }
      ],
      "stateMutability": "view",
      "type": "function"
    },
    {
      "inputs": [
        {
          "internalType": "uint256",
          "name": "tokenId",
          "type": "uint256"
        }
      ],
      "name": "getApproved",
      "outputs": [
        {
          "internalType": "address",
          "name": "",
          "type": "address"
        }
      ],
      "stateMutability": "view",
      "type": "function"
    },
    {
      "inputs": [
        {
          "internalType": "uint256",
          "name": "agentId",
          "type": "uint256"
        },
        {
          "internalType": "string",
          "name": "key",
          "type": "string"
        }
      ],
      "name": "getMetadata",
      "outputs": [
        {
          "internalType": "bytes",
          "name": "",
          "type": "bytes"
        }
      ],
      "stateMutability": "view",
      "type": "function"
    },
    {
      "inputs": [
        {
          "internalType": "uint256",
          "name": "agentId",
          "type": "uint256"
        }
      ],
      "name": "getSummary",
      "outputs": [
        {
          "internalType": "uint64",
          "name": "count",
          "type": "uint64"
        },
        {
          "internalType": "int128",
          "name": "total",
          "type": "int128"
        }
      ],
      "stateMutability": "view",
      "type": "function"
    },
    {
      "inputs": [
        {
          "internalType": "bytes32",
          "name": "requestHash",
          "type": "bytes32"
        }
      ],
      "name": "getValidationStatus",
      "outputs": [
        {
          "internalType": "address",
          "name": "validator",
          "type": "address"
        },
        {
          "internalType": "uint256",
          "name": "agentId",
          "type": "uint256"
        },
        {
          "internalType": "uint8",
          "name": "response",
          "type": "uint8"
        },
        {
          "internalType": "bytes32",
          "name": "responseHash",
          "type": "bytes32"
        },
        {
          "internalType": "string",
          "name": "tag",
          "type": "string"
        },
        {
          "internalType": "uint256",
          "name": "lastUpdate",
          "type": "uint256"
        }
      ],
      "stateMutability": "view",
      "type": "function"
    },
    {
      "inputs": [
        {
          "internalType": "uint256",
          "name": "agentId",
          "type": "uint256"
        },
        {
          "internalType": "int128",
          "name": "value",
          "type": "int128"
        },
        {
          "internalType": "uint8",
          "name": "valueDecimals",
          "type": "uint8"
        },
        {
          "internalType": "string",
          "name": "tag1",
          "type": "string"
        },
        {
          "internalType": "string",
          "name": "tag2",
          "type": "string"
        },
        {
          "internalType": "string",
          "name": "feedbackURI",
          "type": "string"
        }
      ],
      "name": "giveFeedback",
      "outputs": [],
      "stateMutability": "nonpayable",
      "type": "function"
    },
    {
      "inputs": [],
      "name": "initialize",
      "outputs": [],
      "stateMutability": "nonpayable",
      "type": "function"
    },
    {
      "inputs": [
        {
          "internalType": "address",
          "name": "owner",
          "type": "address"
        },
        {
          "internalType": "address",
          "name": "operator",
          "type": "address"
        }
      ],
      "name": "isApprovedForAll",
      "outputs": [
        {
          "internalType": "bool",
          "name": "",
          "type": "bool"
        }
      ],
      "stateMutability": "view",
      "type": "function"
    },
    {
      "inputs": [],
      "name": "name",
      "outputs": [
        {
          "internalType": "string",
          "name": "",
          "type": "string"
        }
      ],
      "stateMutability": "view",
      "type": "function"
    },
    {
      "inputs": [],
      "name": "owner",
      "outputs": [
        {
          "internalType": "address",
          "name": "",
          "type": "address"
        }
      ],
      "stateMutability": "view",
      "type": "function"
    },
    {
      "inputs": [
        {
          "internalType": "uint256",
          "name": "tokenId",
          "type": "uint256"
        }
      ],
      "name": "ownerOf",
      "outputs": [
        {
          "internalType": "address",
          "name": "",
          "type": "address"
        }
      ],
      "stateMutability": "view",
      "type": "function"
    },
    {
      "inputs": [],
      "name": "proxiableUUID",
      "outputs": [
        {
          "internalType": "bytes32",
          "name": "",
          "type": "bytes32"
        }
      ],
      "stateMutability": "view",
      "type": "function"
    },
    {
      "inputs": [
        {
          "internalType": "uint256",
          "name": "agentId",
          "type": "uint256"
        },
        {
          "internalType": "uint64",
          "name": "index",
          "type": "uint64"
        }
      ],
      "name": "readFeedback",
      "outputs": [
        {
          "internalType": "int128",
          "name": "value",
          "type": "int128"
        },
        {
          "internalType": "uint8",
          "name": "valueDecimals",
          "type": "uint8"
        },
        {
          "internalType": "string",
          "name": "tag1",
          "type": "string"
        },
        {
          "internalType": "string",
          "name": "tag2",
          "type": "string"
        },
        {
          "internalType": "bool",
          "name": "revoked",
          "type": "bool"
        }
      ],
      "stateMutability": "view",
      "type": "function"
    },
    {
      "inputs": [
        {
          "internalType": "string",
          "name": "agentURI",
          "type": "string"
        }
      ],
      "name": "register",
      "outputs": [
        {
          "internalType": "uint256",
          "name": "",
          "type": "uint256"
        }
      ],
      "stateMutability": "nonpayable",
      "type": "function"
    },
    {
      "inputs": [],
      "name": "renounceOwnership",
      "outputs": [],
      "stateMutability": "nonpayable",
      "type": "function"
    },
    {
      "inputs": [
        {
          "internalType": "uint256",
          "name": "agentId",
          "type": "uint256"
        },
        {
          "internalType": "uint64",
          "name": "feedbackIndex",
          "type": "uint64"
        }
      ],
      "name": "revokeFeedback",
      "outputs": [],
      "stateMutability": "nonpayable",
      "type": "function"
    },
    {
      "inputs": [
        {
          "internalType": "address",
          "name": "from",
          "type": "address"
        },
        {
          "internalType": "address",
          "name": "to",
          "type": "address"
        },
        {
          "internalType": "uint256",
          "name": "tokenId",
          "type": "uint256"
        }
      ],
      "name": "safeTransferFrom",
      "outputs": [],
      "stateMutability": "nonpayable",
      "type": "function"
    },
    {
      "inputs": [
        {
          "internalType": "address",
          "name": "from",
          "type": "address"
        },
        {
          "internalType": "address",
          "name": "to",
          "type": "address"
        },
        {
          "internalType": "uint256",
          "name": "tokenId",
          "type": "uint256"
        },
        {
          "internalType": "bytes",
          "name": "data",
          "type": "bytes"
        }
      ],
      "name": "safeTransferFrom",
      "outputs": [],
      "stateMutability": "nonpayable",
      "type": "function"
    },
    {
      "inputs": [
        {
          "internalType": "uint256",
          "name": "agentId",
          "type": "uint256"
        },
        {
          "internalType": "string",
          "name": "newURI",
          "type": "string"
        }
      ],
      "name": "setAgentURI",
      "outputs": [],
      "stateMutability": "nonpayable",
      "type": "function"
    },
    {
      "inputs": [
        {
          "internalType": "uint256",
          "name": "agentId",
          "type": "uint256"
        },
        {
          "internalType": "address",
          "name": "wallet",
          "type": "address"
        }
      ],
      "name": "setAgentWallet",
      "outputs": [],
      "stateMutability": "nonpayable",
      "type": "function"
    },
    {
      "inputs": [
        {
          "internalType": "address",
          "name": "operator",
          "type": "address"
        },
        {
          "internalType": "bool",
          "name": "approved",
          "type": "bool"
        }
      ],
      "name": "setApprovalForAll",
      "outputs": [],
      "stateMutability": "nonpayable",
      "type": "function"
    },
    {
      "inputs": [
        {
          "internalType": "uint256",
          "name": "agentId",
          "type": "uint256"
        },
        {
          "internalType": "string",
          "name": "key",
          "type": "string"
        },
        {
          "internalType": "bytes",
          "name": "value",
          "type": "bytes"
        }
      ],
      "name": "setMetadata",
      "outputs": [],
      "stateMutability": "nonpayable",
      "type": "function"
    },
    {
      "inputs": [
        {
          "internalType": "bytes4",
          "name": "interfaceId",
          "type": "bytes4"
        }
      ],
      "name": "supportsInterface",
      "outputs": [
        {
          "internalType": "bool",
          "name": "",
          "type": "bool"
        }
      ],
      "stateMutability": "view",
      "type": "function"
    },
    {
      "inputs": [],
      "name": "symbol",
      "outputs": [
        {
          "internalType": "string",
          "name": "",
          "type": "string"
        }
      ],
      "stateMutability": "view",
      "type": "function"
    },
    {
      "inputs": [
        {
          "internalType": "uint256",
          "name": "tokenId",
          "type": "uint256"
        }
      ],
      "name": "tokenURI",
      "outputs": [
        {
          "internalType": "string",
          "name": "",
          "type": "string"
        }
      ],
      "stateMutability": "view",
      "type": "function"
    },
    {
      "inputs": [
        {
          "internalType": "address",
          "name": "from",
          "type": "address"
        },
        {
          "internalType": "address",
          "name": "to",
          "type": "address"
        },
        {
          "internalType": "uint256",
          "name": "tokenId",
          "type": "uint256"
        }
      ],
      "name": "transferFrom",
      "outputs": [],
      "stateMutability": "nonpayable",
      "type": "function"
    },
    {
      "inputs": [
        {
          "internalType": "address",
          "name": "newOwner",
          "type": "address"
        }
      ],
      "name": "transferOwnership",
      "outputs": [],
      "stateMutability": "nonpayable",
      "type": "function"
    },
    {
      "inputs": [
        {
          "internalType": "uint256",
          "name": "agentId",
          "type": "uint256"
        }
      ],
      "name": "unsetAgentWallet",
      "outputs": [],
      "stateMutability": "nonpayable",
      "type": "function"
    },
    {
      "inputs": [
        {
          "internalType": "address",
          "name": "newImplementation",
          "type": "address"
        },
        {
          "internalType": "bytes",
          "name": "data",
          "type": "bytes"
        }
      ],
      "name": "upgradeToAndCall",
      "outputs": [],
      "stateMutability": "payable",
      "type": "function"
    },
    {
      "inputs": [
        {
          "internalType": "address",
          "name": "validator",
          "type": "address"
        },
        {
          "internalType": "uint256",
          "name": "agentId",
          "type": "uint256"
        },
        {
          "internalType": "string",
          "name": "requestURI",
          "type": "string"
        },
        {
          "internalType": "bytes32",
          "name": "requestHash",
          "type": "bytes32"
        }
      ],
      "name": "validationRequest",
      "outputs": [],
      "stateMutability": "nonpayable",
      "type": "function"
    },
    {
      "inputs": [
        {
          "internalType": "bytes32",
          "name": "requestHash",
          "type": "bytes32"
        },
        {
          "internalType": "uint8",
          "name": "response",
          "type": "uint8"
        },
        {
          "internalType": "string",
          "name": "responseURI",
          "type": "string"
        },
        {
          "internalType": "bytes32",
          "name": "responseHash",
          "type": "bytes32"
        },
        {
          "internalType": "string",
          "name": "tag",
          "type": "string"
        }
      ],
      "name": "validationResponse",
      "outputs": [],
      "stateMutability": "nonpayable",
      "type": "function"
    }
  ],
  "bytecode": "0x60a06040523073ffffffffffffffffffffffffffffffffffffffff1660809073ffffffffffffffffffffffffffffffffffffffff16815250348015610042575f80fd5b506080516154746100695f395f81816125c10152818161261601526127d001526154745ff3fe6080604052600436106101f7575f3560e01c806370a082311161010c578063ad3cb1cc1161009f578063cb4799f21161006e578063cb4799f214610702578063e985e9c51461073e578063f2c298be1461077a578063f2fde38b146107b6578063ff2febfc146107de576101f7565b8063ad3cb1cc14610637578063aee1446014610661578063b88d4fde1461069e578063c87b56dd146106c6576101f7565b80638da5cb5b116100db5780638da5cb5b1461059357806395d89b41146105bd578063a22cb465146105e7578063aaf400c41461060f576101f7565b806370a08231146104eb578063715018a6146105275780637b4414aa1461053d5780638129fc1c1461057d576101f7565b80633d659a961161018f5780634ab3ca991161015e5780634ab3ca99146104195780634f1ef2861461044157806352d1902d1461045d5780636352211e14610487578063636d2f64146104c3576101f7565b80633d659a96146103795780633fddcf19146103a157806342842e0e146103c9578063466648da146103f1576101f7565b8063095ea7b3116101cb578063095ea7b3146102d95780630af28bd31461030157806323b872dd146103295780633b34502e14610351576101f7565b8062339509146101fb57806301ffc9a71461023757806306fdde0314610273578063081812fc1461029d575b5f80fd5b348015610206575f80fd5b50610221600480360381019061021c9190613c74565b61081f565b60405161022e9190613cde565b60405180910390f35b348015610242575f80fd5b5061025d60048036038101906102589190613d4c565b610858565b60405161026a9190613d91565b60405180910390f35b34801561027e575f80fd5b506102876108b8565b6040516102949190613e34565b60405180910390f35b3480156102a8575f80fd5b506102c360048036038101906102be9190613c74565b610955565b6040516102d09190613cde565b60405180910390f35b3480156102e4575f80fd5b506102ff60048036038101906102fa9190613e7e565b610970565b005b34801561030c575f80fd5b5061032760048036038101906103229190613f1d565b610986565b005b348015610334575f80fd5b5061034f600480360381019061034a9190613f7a565b610a4e565b005b34801561035c575f80fd5b5061037760048036038101906103729190614036565b610b4d565b005b348015610384575f80fd5b5061039f600480360381019061039a9190614152565b610eb0565b005b3480156103ac575f80fd5b506103c760048036038101906103c29190613c74565b61114d565b005b3480156103d4575f80fd5b506103ef60048036038101906103ea9190613f7a565b611231565b005b3480156103fc575f80fd5b506104176004803603810190610412919061425e565b611250565b005b348015610424575f80fd5b5061043f600480360381019061043a919061432c565b611345565b005b61045b60048036038101906104569190614492565b611481565b005b348015610468575f80fd5b506104716114a0565b60405161047e91906144fb565b60405180910390f35b348015610492575f80fd5b506104ad60048036038101906104a89190613c74565b6114d1565b6040516104ba9190613cde565b60405180910390f35b3480156104ce575f80fd5b506104e960048036038101906104e49190614514565b6114e2565b005b3480156104f6575f80fd5b50610511600480360381019061050c9190614552565b6115e3565b60405161051e919061458c565b60405180910390f35b348015610532575f80fd5b5061053b6116a7565b005b348015610548575f80fd5b50610563600480360381019061055e919061432c565b6116ba565b6040516105749594939291906145c3565b60405180910390f35b348015610588575f80fd5b50610591611861565b005b34801561059e575f80fd5b506105a7611a64565b6040516105b49190613cde565b60405180910390f35b3480156105c8575f80fd5b506105d1611a99565b6040516105de9190613e34565b60405180910390f35b3480156105f2575f80fd5b5061060d6004803603810190610608919061464c565b611b37565b005b34801561061a575f80fd5b506106356004803603810190610630919061468a565b611b4d565b005b348015610642575f80fd5b5061064b611d87565b6040516106589190613e34565b60405180910390f35b34801561066c575f80fd5b5061068760048036038101906106829190613c74565b611dc0565b60405161069592919061471d565b60405180910390f35b3480156106a9575f80fd5b506106c460048036038101906106bf9190614744565b611e76565b005b3480156106d1575f80fd5b506106ec60048036038101906106e79190613c74565b611e9b565b6040516106f99190613e34565b60405180910390f35b34801561070d575f80fd5b5061072860048036038101906107239190613f1d565b611f17565b6040516107359190614816565b60405180910390f35b348015610749575f80fd5b50610764600480360381019061075f9190614836565b611fd8565b6040516107719190613d91565b60405180910390f35b348015610785575f80fd5b506107a0600480360381019061079b9190614874565b612074565b6040516107ad919061458c565b60405180910390f35b3480156107c1575f80fd5b506107dc60048036038101906107d79190614552565b612140565b005b3480156107e9575f80fd5b5061080460048036038101906107ff91906148bf565b6121c4565b604051610816969594939291906148ea565b60405180910390f35b5f60015f8381526020019081526020015f205f9054906101000a900473ffffffffffffffffffffffffffffffffffffffff169050919050565b5f634906490660e01b7bffffffffffffffffffffffffffffffffffffffffffffffffffffffff1916827bffffffffffffffffffffffffffffffffffffffffffffffffffffffff191614806108b157506108b0826122db565b5b9050919050565b60605f6108c36123bc565b9050805f0180546108d39061497d565b80601f01602080910402602001604051908101604052809291908181526020018280546108ff9061497d565b801561094a5780601f106109215761010080835404028352916020019161094a565b820191905f5260205f20905b81548152906001019060200180831161092d57829003601f168201915b505050505091505090565b5f61095f826123e3565b5061096982612469565b9050919050565b610982828261097d6124b0565b6124b7565b5050565b3373ffffffffffffffffffffffffffffffffffffffff166109a6846114d1565b73ffffffffffffffffffffffffffffffffffffffff16146109fc576040517f08c379a00000000000000000000000000000000000000000000000000000000081526004016109f3906149f7565b60405180910390fd5b610a498383838080601f0160208091040260200160405190810160405280939291908181526020018383808284375f81840152601f19601f820116905080830192505050505050506124c9565b505050565b5f73ffffffffffffffffffffffffffffffffffffffff168273ffffffffffffffffffffffffffffffffffffffff1603610abe575f6040517f64a0ae92000000000000000000000000000000000000000000000000000000008152600401610ab59190613cde565b60405180910390fd5b5f610ad18383610acc6124b0565b612530565b90508373ffffffffffffffffffffffffffffffffffffffff168173ffffffffffffffffffffffffffffffffffffffff1614610b47578382826040517f64283d7b000000000000000000000000000000000000000000000000000000008152600401610b3e93929190614a15565b60405180910390fd5b50505050565b5f73ffffffffffffffffffffffffffffffffffffffff16610b6d8a612578565b73ffffffffffffffffffffffffffffffffffffffff1603610bc3576040517f08c379a0000000000000000000000000000000000000000000000000000000008152600401610bba90614a94565b60405180910390fd5b5f60035f8b81526020019081526020015f2080549050905060035f8b81526020019081526020015f206040518060e001604052803373ffffffffffffffffffffffffffffffffffffffff1681526020018b600f0b81526020018a60ff16815260200189898080601f0160208091040260200160405190810160405280939291908181526020018383808284375f81840152601f19601f82011690508083019250505050505050815260200187878080601f0160208091040260200160405190810160405280939291908181526020018383808284375f81840152601f19601f82011690508083019250505050505050815260200185858080601f0160208091040260200160405190810160405280939291908181526020018383808284375f81840152601f19601f8201169050808301925050505050505081526020015f1515815250908060018154018082558091505060019003905f5260205f2090600602015f909190919091505f820151815f015f6101000a81548173ffffffffffffffffffffffffffffffffffffffff021916908373ffffffffffffffffffffffffffffffffffffffff1602179055506020820151816001015f6101000a8154816fffffffffffffffffffffffffffffffff0219169083600f0b6fffffffffffffffffffffffffffffffff16021790555060408201518160010160106101000a81548160ff021916908360ff1602179055506060820151816002019081610de79190614c4f565b506080820151816003019081610dfd9190614c4f565b5060a0820151816004019081610e139190614c4f565b5060c0820151816005015f6101000a81548160ff02191690831515021790555050508686604051610e45929190614d4c565b60405180910390203373ffffffffffffffffffffffffffffffffffffffff168b7f1ecb26d3b47500d671a0d8d81e70fc7e863bf91101e89c68d18edf3893e85854848d8d8d8d604051610e9c959493929190614d90565b60405180910390a450505050505050505050565b5f60045f8981526020019081526020015f2090503373ffffffffffffffffffffffffffffffffffffffff16816001015f9054906101000a900473ffffffffffffffffffffffffffffffffffffffff1673ffffffffffffffffffffffffffffffffffffffff1614610f55576040517f08c379a0000000000000000000000000000000000000000000000000000000008152600401610f4c90614e26565b60405180910390fd5b3373ffffffffffffffffffffffffffffffffffffffff16815f015f9054906101000a900473ffffffffffffffffffffffffffffffffffffffff1673ffffffffffffffffffffffffffffffffffffffff1603610fe5576040517f08c379a0000000000000000000000000000000000000000000000000000000008152600401610fdc90614e8e565b60405180910390fd5b6040518060a001604052808860ff16815260200187878080601f0160208091040260200160405190810160405280939291908181526020018383808284375f81840152601f19601f82011690508083019250505050505050815260200185815260200184848080601f0160208091040260200160405190810160405280939291908181526020018383808284375f81840152601f19601f8201169050808301925050505050505081526020014281525060055f8a81526020019081526020015f205f820151815f015f6101000a81548160ff021916908360ff16021790555060208201518160010190816110d99190614c4f565b506040820151816002015560608201518160030190816110f99190614c4f565b5060808201518160040155905050877f6fd4615200853f01293547a62fc48b13b1a3bd9cfaf86a2167566c0207960c6d88858560405161113b93929190614eac565b60405180910390a25050505050505050565b3373ffffffffffffffffffffffffffffffffffffffff1661116d826114d1565b73ffffffffffffffffffffffffffffffffffffffff16146111c3576040517f08c379a00000000000000000000000000000000000000000000000000000000081526004016111ba906149f7565b60405180910390fd5b60015f8281526020019081526020015f205f6101000a81549073ffffffffffffffffffffffffffffffffffffffff0219169055807fc1b62bacf2a2f4363c2190e00f2370f3b563001a0c56c73eae69619e58e9624c5f6040516112269190613cde565b60405180910390a250565b61124b83838360405180602001604052805f815250611e76565b505050565b3373ffffffffffffffffffffffffffffffffffffffff16611270866114d1565b73ffffffffffffffffffffffffffffffffffffffff16146112c6576040517f08c379a00000000000000000000000000000000000000000000000000000000081526004016112bd906149f7565b60405180910390fd5b818160025f8881526020019081526020015f2086866040516112e9929190614d4c565b90815260200160405180910390209182611304929190614f3e565b50847e25607c3684ab2206e394d59de27f291202c0c51811219084fca969b6ba48b8858560405161133692919061500b565b60405180910390a25050505050565b5f60035f8481526020019081526020015f208267ffffffffffffffff16815481106113735761137261502d565b5b905f5260205f20906006020190503373ffffffffffffffffffffffffffffffffffffffff16815f015f9054906101000a900473ffffffffffffffffffffffffffffffffffffffff1673ffffffffffffffffffffffffffffffffffffffff1614611411576040517f08c379a0000000000000000000000000000000000000000000000000000000008152600401611408906150a4565b60405180910390fd5b6001816005015f6101000a81548160ff0219169083151502179055503373ffffffffffffffffffffffffffffffffffffffff16837f25156fd3288212246d8b008d5921fde376c71ed14ac2e072a506eb06fde6d09d8460405161147491906150c2565b60405180910390a3505050565b6114896125bf565b611492826126a5565b61149c82826126b0565b5050565b5f6114a96127ce565b7f360894a13ba1a3210667c828492db98dca3e2076cc3735a920a3ca505d382bbc5f1b905090565b5f6114db826123e3565b9050919050565b3373ffffffffffffffffffffffffffffffffffffffff16611502836114d1565b73ffffffffffffffffffffffffffffffffffffffff1614611558576040517f08c379a000000000000000000000000000000000000000000000000000000000815260040161154f906149f7565b60405180910390fd5b8060015f8481526020019081526020015f205f6101000a81548173ffffffffffffffffffffffffffffffffffffffff021916908373ffffffffffffffffffffffffffffffffffffffff160217905550817fc1b62bacf2a2f4363c2190e00f2370f3b563001a0c56c73eae69619e58e9624c826040516115d79190613cde565b60405180910390a25050565b5f806115ed6123bc565b90505f73ffffffffffffffffffffffffffffffffffffffff168373ffffffffffffffffffffffffffffffffffffffff160361165f575f6040517f89c62b640000000000000000000000000000000000000000000000000000000081526004016116569190613cde565b60405180910390fd5b806003015f8473ffffffffffffffffffffffffffffffffffffffff1673ffffffffffffffffffffffffffffffffffffffff1681526020019081526020015f2054915050919050565b6116af612855565b6116b85f6128dc565b565b5f806060805f8060035f8981526020019081526020015f208767ffffffffffffffff16815481106116ee576116ed61502d565b5b905f5260205f2090600602019050806001015f9054906101000a9004600f0b8160010160109054906101000a900460ff168260020183600301846005015f9054906101000a900460ff168280546117449061497d565b80601f01602080910402602001604051908101604052809291908181526020018280546117709061497d565b80156117bb5780601f10611792576101008083540402835291602001916117bb565b820191905f5260205f20905b81548152906001019060200180831161179e57829003601f168201915b505050505092508180546117ce9061497d565b80601f01602080910402602001604051908101604052809291908181526020018280546117fa9061497d565b80156118455780601f1061181c57610100808354040283529160200191611845565b820191905f5260205f20905b81548152906001019060200180831161182857829003601f168201915b5050505050915095509550955095509550509295509295909350565b5f61186a6129ad565b90505f815f0160089054906101000a900460ff161590505f825f015f9054906101000a900467ffffffffffffffff1690505f808267ffffffffffffffff161480156118b25750825b90505f60018367ffffffffffffffff161480156118e557505f3073ffffffffffffffffffffffffffffffffffffffff163b145b9050811580156118f3575080155b1561192a576040517ff92ee8a900000000000000000000000000000000000000000000000000000000815260040160405180910390fd5b6001855f015f6101000a81548167ffffffffffffffff021916908367ffffffffffffffff1602179055508315611977576001855f0160086101000a81548160ff0219169083151502179055505b6119eb6040518060400160405280600b81526020017f466f726765204167656e740000000000000000000000000000000000000000008152506040518060400160405280600581526020017f464f5247450000000000000000000000000000000000000000000000000000008152506129c0565b6119f36129d6565b6119fc336129e0565b60015f819055508315611a5d575f855f0160086101000a81548160ff0219169083151502179055507fc7f505b2f371ae2175ee4913f4499e1f2633a7b5936321eed1cdaeb6115181d26001604051611a549190615114565b60405180910390a15b5050505050565b5f80611a6e6129f4565b9050805f015f9054906101000a900473ffffffffffffffffffffffffffffffffffffffff1691505090565b60605f611aa46123bc565b9050806001018054611ab59061497d565b80601f0160208091040260200160405190810160405280929190818152602001828054611ae19061497d565b8015611b2c5780601f10611b0357610100808354040283529160200191611b2c565b820191905f5260205f20905b815481529060010190602001808311611b0f57829003601f168201915b505050505091505090565b611b49611b426124b0565b8383612a1b565b5050565b5f73ffffffffffffffffffffffffffffffffffffffff1660045f8381526020019081526020015f205f015f9054906101000a900473ffffffffffffffffffffffffffffffffffffffff1673ffffffffffffffffffffffffffffffffffffffff1614611bed576040517f08c379a0000000000000000000000000000000000000000000000000000000008152600401611be490615177565b60405180910390fd5b60405180608001604052803373ffffffffffffffffffffffffffffffffffffffff1681526020018673ffffffffffffffffffffffffffffffffffffffff16815260200185815260200184848080601f0160208091040260200160405190810160405280939291908181526020018383808284375f81840152601f19601f8201169050808301925050505050505081525060045f8381526020019081526020015f205f820151815f015f6101000a81548173ffffffffffffffffffffffffffffffffffffffff021916908373ffffffffffffffffffffffffffffffffffffffff1602179055506020820151816001015f6101000a81548173ffffffffffffffffffffffffffffffffffffffff021916908373ffffffffffffffffffffffffffffffffffffffff160217905550604082015181600201556060820151816003019081611d379190614c4f565b50905050838573ffffffffffffffffffffffffffffffffffffffff16827fd4842d350f3a50179907f01fa902e2c8dba6003244d81225deeec7758a30c39660405160405180910390a45050505050565b6040518060400160405280600581526020017f352e302e3000000000000000000000000000000000000000000000000000000081525081565b5f805f60035f8581526020019081526020015f2090505f5b8180549050811015611e6f57818181548110611df757611df661502d565b5b905f5260205f2090600602016005015f9054906101000a900460ff16611e62578380611e22906151c2565b945050818181548110611e3857611e3761502d565b5b905f5260205f2090600602016001015f9054906101000a9004600f0b83611e5f91906151f1565b92505b8080600101915050611dd8565b5050915091565b611e81848484610a4e565b611e95611e8c6124b0565b85858585612c02565b50505050565b6060611ea6826123e3565b505f611eb0612dae565b90505f611ebc84612dc4565b90505f825103611ed0578092505050611f12565b5f81511115611f04578181604051602001611eec929190615288565b60405160208183030381529060405292505050611f12565b611f0d84612e72565b925050505b919050565b606060025f8581526020019081526020015f208383604051611f3a929190614d4c565b90815260200160405180910390208054611f539061497d565b80601f0160208091040260200160405190810160405280929190818152602001828054611f7f9061497d565b8015611fca5780601f10611fa157610100808354040283529160200191611fca565b820191905f5260205f20905b815481529060010190602001808311611fad57829003601f168201915b505050505090509392505050565b5f80611fe26123bc565b9050806005015f8573ffffffffffffffffffffffffffffffffffffffff1673ffffffffffffffffffffffffffffffffffffffff1681526020019081526020015f205f8473ffffffffffffffffffffffffffffffffffffffff1673ffffffffffffffffffffffffffffffffffffffff1681526020019081526020015f205f9054906101000a900460ff1691505092915050565b5f805f80815480929190612087906152ab565b9190505590506120973382612ed8565b6120e48185858080601f0160208091040260200160405190810160405280939291908181526020018383808284375f81840152601f19601f820116905080830192505050505050506124c9565b3373ffffffffffffffffffffffffffffffffffffffff167f77284e1a75d149ef26161b755b08a0af1ea0723010e19e79bce5626d693581f882868660405161212e939291906152f2565b60405180910390a28091505092915050565b612148612855565b5f73ffffffffffffffffffffffffffffffffffffffff168173ffffffffffffffffffffffffffffffffffffffff16036121b8575f6040517f1e4fbdf70000000000000000000000000000000000000000000000000000000081526004016121af9190613cde565b60405180910390fd5b6121c1816128dc565b50565b5f805f8060605f8060045f8981526020019081526020015f2090505f60055f8a81526020019081526020015f209050816001015f9054906101000a900473ffffffffffffffffffffffffffffffffffffffff168260020154825f015f9054906101000a900460ff1683600201548460030185600401548180546122469061497d565b80601f01602080910402602001604051908101604052809291908181526020018280546122729061497d565b80156122bd5780601f10612294576101008083540402835291602001916122bd565b820191905f5260205f20905b8154815290600101906020018083116122a057829003601f168201915b50505050509150975097509750975097509750505091939550919395565b5f7f80ac58cd000000000000000000000000000000000000000000000000000000007bffffffffffffffffffffffffffffffffffffffffffffffffffffffff1916827bffffffffffffffffffffffffffffffffffffffffffffffffffffffff191614806123a557507f5b5e139f000000000000000000000000000000000000000000000000000000007bffffffffffffffffffffffffffffffffffffffffffffffffffffffff1916827bffffffffffffffffffffffffffffffffffffffffffffffffffffffff1916145b806123b557506123b482612fcb565b5b9050919050565b5f7f80bb2b638cc20bc4d0a60d66940f3ab4a00c1d7b313497ca82fb0b4ab0079300905090565b5f806123ee83612578565b90505f73ffffffffffffffffffffffffffffffffffffffff168173ffffffffffffffffffffffffffffffffffffffff160361246057826040517f7e273289000000000000000000000000000000000000000000000000000000008152600401612457919061458c565b60405180910390fd5b80915050919050565b5f806124736123bc565b9050806004015f8481526020019081526020015f205f9054906101000a900473ffffffffffffffffffffffffffffffffffffffff16915050919050565b5f33905090565b6124c48383836001613034565b505050565b5f6124d2613201565b905081815f015f8581526020019081526020015f2090816124f39190614c4f565b507ff8e1a15aba9398e019f0b49df1a4fde98ee17ae345cb5f6b5e2c27f5033e8ce783604051612523919061458c565b60405180910390a1505050565b5f60015f8481526020019081526020015f205f6101000a81549073ffffffffffffffffffffffffffffffffffffffff021916905561256f848484613228565b90509392505050565b5f806125826123bc565b9050806002015f8481526020019081526020015f205f9054906101000a900473ffffffffffffffffffffffffffffffffffffffff16915050919050565b7f000000000000000000000000000000000000000000000000000000000000000073ffffffffffffffffffffffffffffffffffffffff163073ffffffffffffffffffffffffffffffffffffffff16148061266c57507f000000000000000000000000000000000000000000000000000000000000000073ffffffffffffffffffffffffffffffffffffffff16612653613445565b73ffffffffffffffffffffffffffffffffffffffff1614155b156126a3576040517fe07c8dba00000000000000000000000000000000000000000000000000000000815260040160405180910390fd5b565b6126ad612855565b50565b8173ffffffffffffffffffffffffffffffffffffffff166352d1902d6040518163ffffffff1660e01b8152600401602060405180830381865afa92505050801561271857506040513d601f19601f820116820180604052508101906127159190615336565b60015b61275957816040517f4c9c8ce30000000000000000000000000000000000000000000000000000000081526004016127509190613cde565b60405180910390fd5b7f360894a13ba1a3210667c828492db98dca3e2076cc3735a920a3ca505d382bbc5f1b81146127bf57806040517faa1d49a40000000000000000000000000000000000000000000000000000000081526004016127b691906144fb565b60405180910390fd5b6127c98383613498565b505050565b7f000000000000000000000000000000000000000000000000000000000000000073ffffffffffffffffffffffffffffffffffffffff163073ffffffffffffffffffffffffffffffffffffffff1614612853576040517fe07c8dba00000000000000000000000000000000000000000000000000000000815260040160405180910390fd5b565b61285d6124b0565b73ffffffffffffffffffffffffffffffffffffffff1661287b611a64565b73ffffffffffffffffffffffffffffffffffffffff16146128da5761289e6124b0565b6040517f118cdaa70000000000000000000000000000000000000000000000000000000081526004016128d19190613cde565b60405180910390fd5b565b5f6128e56129f4565b90505f815f015f9054906101000a900473ffffffffffffffffffffffffffffffffffffffff16905082825f015f6101000a81548173ffffffffffffffffffffffffffffffffffffffff021916908373ffffffffffffffffffffffffffffffffffffffff1602179055508273ffffffffffffffffffffffffffffffffffffffff168173ffffffffffffffffffffffffffffffffffffffff167f8be0079c531659141344cd1fd0a4f28419497f9722a3daafe3b4186f6b6457e060405160405180910390a3505050565b5f806129b761350a565b90508091505090565b6129c8613533565b6129d28282613573565b5050565b6129de613533565b565b6129e8613533565b6129f1816135ae565b50565b5f7f9016d09d72d40fdae2fd8ceac6b6234c7706214fd39c1cd1e609a0528c199300905090565b5f612a246123bc565b90505f73ffffffffffffffffffffffffffffffffffffffff168473ffffffffffffffffffffffffffffffffffffffff1603612a96575f6040517fa9fbf51f000000000000000000000000000000000000000000000000000000008152600401612a8d9190613cde565b60405180910390fd5b5f73ffffffffffffffffffffffffffffffffffffffff168373ffffffffffffffffffffffffffffffffffffffff1603612b0657826040517f5b08ba18000000000000000000000000000000000000000000000000000000008152600401612afd9190613cde565b60405180910390fd5b81816005015f8673ffffffffffffffffffffffffffffffffffffffff1673ffffffffffffffffffffffffffffffffffffffff1681526020019081526020015f205f8573ffffffffffffffffffffffffffffffffffffffff1673ffffffffffffffffffffffffffffffffffffffff1681526020019081526020015f205f6101000a81548160ff0219169083151502179055508273ffffffffffffffffffffffffffffffffffffffff168473ffffffffffffffffffffffffffffffffffffffff167f17307eab39ab6107e8899845ad3d59bd9653f200f220920489ca2b5937696c3184604051612bf49190613d91565b60405180910390a350505050565b5f8373ffffffffffffffffffffffffffffffffffffffff163b1115612da7578273ffffffffffffffffffffffffffffffffffffffff1663150b7a02868685856040518563ffffffff1660e01b8152600401612c609493929190615361565b6020604051808303815f875af1925050508015612c9b57506040513d601f19601f82011682018060405250810190612c9891906153bf565b60015b612d1c573d805f8114612cc9576040519150601f19603f3d011682016040523d82523d5f602084013e612cce565b606091505b505f815103612d1457836040517f64a0ae92000000000000000000000000000000000000000000000000000000008152600401612d0b9190613cde565b60405180910390fd5b805160208201fd5b63150b7a0260e01b7bffffffffffffffffffffffffffffffffffffffffffffffffffffffff1916817bffffffffffffffffffffffffffffffffffffffffffffffffffffffff191614612da557836040517f64a0ae92000000000000000000000000000000000000000000000000000000008152600401612d9c9190613cde565b60405180910390fd5b505b5050505050565b606060405180602001604052805f815250905090565b60605f612dcf613201565b9050805f015f8481526020019081526020015f208054612dee9061497d565b80601f0160208091040260200160405190810160405280929190818152602001828054612e1a9061497d565b8015612e655780601f10612e3c57610100808354040283529160200191612e65565b820191905f5260205f20905b815481529060010190602001808311612e4857829003601f168201915b5050505050915050919050565b6060612e7d826123e3565b505f612e87612dae565b90505f815111612ea55760405180602001604052805f815250612ed0565b80612eaf84613632565b604051602001612ec0929190615288565b6040516020818303038152906040525b915050919050565b5f73ffffffffffffffffffffffffffffffffffffffff168273ffffffffffffffffffffffffffffffffffffffff1603612f48575f6040517f64a0ae92000000000000000000000000000000000000000000000000000000008152600401612f3f9190613cde565b60405180910390fd5b5f612f5483835f612530565b90505f73ffffffffffffffffffffffffffffffffffffffff168173ffffffffffffffffffffffffffffffffffffffff1614612fc6575f6040517f73c6ac6e000000000000000000000000000000000000000000000000000000008152600401612fbd9190613cde565b60405180910390fd5b505050565b5f7f01ffc9a7000000000000000000000000000000000000000000000000000000007bffffffffffffffffffffffffffffffffffffffffffffffffffffffff1916827bffffffffffffffffffffffffffffffffffffffffffffffffffffffff1916149050919050565b5f61303d6123bc565b9050818061307757505f73ffffffffffffffffffffffffffffffffffffffff168373ffffffffffffffffffffffffffffffffffffffff1614155b156131a9575f613086856123e3565b90505f73ffffffffffffffffffffffffffffffffffffffff168473ffffffffffffffffffffffffffffffffffffffff16141580156130f057508373ffffffffffffffffffffffffffffffffffffffff168173ffffffffffffffffffffffffffffffffffffffff1614155b801561310357506131018185611fd8565b155b1561314557836040517fa9fbf51f00000000000000000000000000000000000000000000000000000000815260040161313c9190613cde565b60405180910390fd5b82156131a757848673ffffffffffffffffffffffffffffffffffffffff168273ffffffffffffffffffffffffffffffffffffffff167f8c5be1e5ebec7d5bd14f71427d1e84f3dd0314c0f7b2291e5b200ac8c7c3b92560405160405180910390a45b505b84816004015f8681526020019081526020015f205f6101000a81548173ffffffffffffffffffffffffffffffffffffffff021916908373ffffffffffffffffffffffffffffffffffffffff1602179055505050505050565b5f7f0542a41881ee128a365a727b282c86fa859579490b9bb45aab8503648c8e7900905090565b5f806132326123bc565b90505f61323e85612578565b90505f73ffffffffffffffffffffffffffffffffffffffff168473ffffffffffffffffffffffffffffffffffffffff161461327f5761327e8185876136fc565b5b5f73ffffffffffffffffffffffffffffffffffffffff168173ffffffffffffffffffffffffffffffffffffffff161461330c576132be5f865f80613034565b6001826003015f8373ffffffffffffffffffffffffffffffffffffffff1673ffffffffffffffffffffffffffffffffffffffff1681526020019081526020015f205f82825403925050819055505b5f73ffffffffffffffffffffffffffffffffffffffff168673ffffffffffffffffffffffffffffffffffffffff161461338d576001826003015f8873ffffffffffffffffffffffffffffffffffffffff1673ffffffffffffffffffffffffffffffffffffffff1681526020019081526020015f205f82825401925050819055505b85826002015f8781526020019081526020015f205f6101000a81548173ffffffffffffffffffffffffffffffffffffffff021916908373ffffffffffffffffffffffffffffffffffffffff160217905550848673ffffffffffffffffffffffffffffffffffffffff168273ffffffffffffffffffffffffffffffffffffffff167fddf252ad1be2c89b69c2b068fc378daa952ba7f163c4a11628f55a4df523b3ef60405160405180910390a480925050509392505050565b5f6134717f360894a13ba1a3210667c828492db98dca3e2076cc3735a920a3ca505d382bbc5f1b6137bf565b5f015f9054906101000a900473ffffffffffffffffffffffffffffffffffffffff16905090565b6134a1826137c8565b8173ffffffffffffffffffffffffffffffffffffffff167fbc7cd75a20ee27fd9adebab32041f755214dbc6bffa90cc0225b39da2e5c2d3b60405160405180910390a25f815111156134fd576134f78282613891565b50613506565b613505613982565b5b5050565b5f7ff0c57e16840df040f15088dc2f81fe391c3923bec73e23a9662efc9c229c6a005f1b905090565b61353b6139be565b613571576040517fd7e6bcf800000000000000000000000000000000000000000000000000000000815260040160405180910390fd5b565b61357b613533565b5f6135846123bc565b905082815f0190816135969190614c4f565b50818160010190816135a89190614c4f565b50505050565b6135b6613533565b5f73ffffffffffffffffffffffffffffffffffffffff168173ffffffffffffffffffffffffffffffffffffffff1603613626575f6040517f1e4fbdf700000000000000000000000000000000000000000000000000000000815260040161361d9190613cde565b60405180910390fd5b61362f816128dc565b50565b60605f6001613640846139dc565b0190505f8167ffffffffffffffff81111561365e5761365d61436e565b5b6040519080825280601f01601f1916602001820160405280156136905781602001600182028036833780820191505090505b5090505f82602083010190505b6001156136f1578080600190039150507f3031323334353637383961626364656600000000000000000000000000000000600a86061a8153600a85816136e6576136e56153ea565b5b0494505f850361369d575b819350505050919050565b613707838383613b2d565b6137ba575f73ffffffffffffffffffffffffffffffffffffffff168373ffffffffffffffffffffffffffffffffffffffff160361377b57806040517f7e273289000000000000000000000000000000000000000000000000000000008152600401613772919061458c565b60405180910390fd5b81816040517f177e802f0000000000000000000000000000000000000000000000000000000081526004016137b1929190615417565b60405180910390fd5b505050565b5f819050919050565b5f8173ffffffffffffffffffffffffffffffffffffffff163b0361382357806040517f4c9c8ce300000000000000000000000000000000000000000000000000000000815260040161381a9190613cde565b60405180910390fd5b8061384f7f360894a13ba1a3210667c828492db98dca3e2076cc3735a920a3ca505d382bbc5f1b6137bf565b5f015f6101000a81548173ffffffffffffffffffffffffffffffffffffffff021916908373ffffffffffffffffffffffffffffffffffffffff16021790555050565b60605f61389e8484613bed565b90508080156138d457505f6138b1613c01565b11806138d357505f8473ffffffffffffffffffffffffffffffffffffffff163b115b5b156138e9576138e1613c08565b91505061397c565b801561392c57836040517f9996b3150000000000000000000000000000000000000000000000000000000081526004016139239190613cde565b60405180910390fd5b5f613935613c01565b111561394857613943613c25565b61397a565b6040517fd6bda27500000000000000000000000000000000000000000000000000000000815260040160405180910390fd5b505b92915050565b5f3411156139bc576040517fb398979f00000000000000000000000000000000000000000000000000000000815260040160405180910390fd5b565b5f6139c76129ad565b5f0160089054906101000a900460ff16905090565b5f805f90507a184f03e93ff9f4daa797ed6e38ed64bf6a1f0100000000000000008310613a38577a184f03e93ff9f4daa797ed6e38ed64bf6a1f0100000000000000008381613a2e57613a2d6153ea565b5b0492506040810190505b6d04ee2d6d415b85acef81000000008310613a75576d04ee2d6d415b85acef81000000008381613a6b57613a6a6153ea565b5b0492506020810190505b662386f26fc100008310613aa457662386f26fc100008381613a9a57613a996153ea565b5b0492506010810190505b6305f5e1008310613acd576305f5e1008381613ac357613ac26153ea565b5b0492506008810190505b6127108310613af2576127108381613ae857613ae76153ea565b5b0492506004810190505b60648310613b155760648381613b0b57613b0a6153ea565b5b0492506002810190505b600a8310613b24576001810190505b80915050919050565b5f8073ffffffffffffffffffffffffffffffffffffffff168373ffffffffffffffffffffffffffffffffffffffff1614158015613be457508273ffffffffffffffffffffffffffffffffffffffff168473ffffffffffffffffffffffffffffffffffffffff161480613ba55750613ba48484611fd8565b5b80613be357508273ffffffffffffffffffffffffffffffffffffffff16613bcb83612469565b73ffffffffffffffffffffffffffffffffffffffff16145b5b90509392505050565b5f805f835160208501865af4905092915050565b5f3d905090565b606060405190503d81523d5f602083013e3d602001810160405290565b6040513d5f823e3d81fd5b5f604051905090565b5f80fd5b5f80fd5b5f819050919050565b613c5381613c41565b8114613c5d575f80fd5b50565b5f81359050613c6e81613c4a565b92915050565b5f60208284031215613c8957613c88613c39565b5b5f613c9684828501613c60565b91505092915050565b5f73ffffffffffffffffffffffffffffffffffffffff82169050919050565b5f613cc882613c9f565b9050919050565b613cd881613cbe565b82525050565b5f602082019050613cf15f830184613ccf565b92915050565b5f7fffffffff0000000000000000000000000000000000000000000000000000000082169050919050565b613d2b81613cf7565b8114613d35575f80fd5b50565b5f81359050613d4681613d22565b92915050565b5f60208284031215613d6157613d60613c39565b5b5f613d6e84828501613d38565b91505092915050565b5f8115159050919050565b613d8b81613d77565b82525050565b5f602082019050613da45f830184613d82565b92915050565b5f81519050919050565b5f82825260208201905092915050565b5f5b83811015613de1578082015181840152602081019050613dc6565b5f8484015250505050565b5f601f19601f8301169050919050565b5f613e0682613daa565b613e108185613db4565b9350613e20818560208601613dc4565b613e2981613dec565b840191505092915050565b5f6020820190508181035f830152613e4c8184613dfc565b905092915050565b613e5d81613cbe565b8114613e67575f80fd5b50565b5f81359050613e7881613e54565b92915050565b5f8060408385031215613e9457613e93613c39565b5b5f613ea185828601613e6a565b9250506020613eb285828601613c60565b9150509250929050565b5f80fd5b5f80fd5b5f80fd5b5f8083601f840112613edd57613edc613ebc565b5b8235905067ffffffffffffffff811115613efa57613ef9613ec0565b5b602083019150836001820283011115613f1657613f15613ec4565b5b9250929050565b5f805f60408486031215613f3457613f33613c39565b5b5f613f4186828701613c60565b935050602084013567ffffffffffffffff811115613f6257613f61613c3d565b5b613f6e86828701613ec8565b92509250509250925092565b5f805f60608486031215613f9157613f90613c39565b5b5f613f9e86828701613e6a565b9350506020613faf86828701613e6a565b9250506040613fc086828701613c60565b9150509250925092565b5f81600f0b9050919050565b613fdf81613fca565b8114613fe9575f80fd5b50565b5f81359050613ffa81613fd6565b92915050565b5f60ff82169050919050565b61401581614000565b811461401f575f80fd5b50565b5f813590506140308161400c565b92915050565b5f805f805f805f805f60c08a8c03121561405357614052613c39565b5b5f6140608c828d01613c60565b99505060206140718c828d01613fec565b98505060406140828c828d01614022565b97505060608a013567ffffffffffffffff8111156140a3576140a2613c3d565b5b6140af8c828d01613ec8565b965096505060808a013567ffffffffffffffff8111156140d2576140d1613c3d565b5b6140de8c828d01613ec8565b945094505060a08a013567ffffffffffffffff81111561410157614100613c3d565b5b61410d8c828d01613ec8565b92509250509295985092959850929598565b5f819050919050565b6141318161411f565b811461413b575f80fd5b50565b5f8135905061414c81614128565b92915050565b5f805f805f805f60a0888a03121561416d5761416c613c39565b5b5f61417a8a828b0161413e565b975050602061418b8a828b01614022565b965050604088013567ffffffffffffffff8111156141ac576141ab613c3d565b5b6141b88a828b01613ec8565b955095505060606141cb8a828b0161413e565b935050608088013567ffffffffffffffff8111156141ec576141eb613c3d565b5b6141f88a828b01613ec8565b925092505092959891949750929550565b5f8083601f84011261421e5761421d613ebc565b5b8235905067ffffffffffffffff81111561423b5761423a613ec0565b5b60208301915083600182028301111561425757614256613ec4565b5b9250929050565b5f805f805f6060868803121561427757614276613c39565b5b5f61428488828901613c60565b955050602086013567ffffffffffffffff8111156142a5576142a4613c3d565b5b6142b188828901613ec8565b9450945050604086013567ffffffffffffffff8111156142d4576142d3613c3d565b5b6142e088828901614209565b92509250509295509295909350565b5f67ffffffffffffffff82169050919050565b61430b816142ef565b8114614315575f80fd5b50565b5f8135905061432681614302565b92915050565b5f806040838503121561434257614341613c39565b5b5f61434f85828601613c60565b925050602061436085828601614318565b9150509250929050565b5f80fd5b7f4e487b71000000000000000000000000000000000000000000000000000000005f52604160045260245ffd5b6143a482613dec565b810181811067ffffffffffffffff821117156143c3576143c261436e565b5b80604052505050565b5f6143d5613c30565b90506143e1828261439b565b919050565b5f67ffffffffffffffff821115614400576143ff61436e565b5b61440982613dec565b9050602081019050919050565b828183375f83830152505050565b5f614436614431846143e6565b6143cc565b9050828152602081018484840111156144525761445161436a565b5b61445d848285614416565b509392505050565b5f82601f83011261447957614478613ebc565b5b8135614489848260208601614424565b91505092915050565b5f80604083850312156144a8576144a7613c39565b5b5f6144b585828601613e6a565b925050602083013567ffffffffffffffff8111156144d6576144d5613c3d565b5b6144e285828601614465565b9150509250929050565b6144f58161411f565b82525050565b5f60208201905061450e5f8301846144ec565b92915050565b5f806040838503121561452a57614529613c39565b5b5f61453785828601613c60565b925050602061454885828601613e6a565b9150509250929050565b5f6020828403121561456757614566613c39565b5b5f61457484828501613e6a565b91505092915050565b61458681613c41565b82525050565b5f60208201905061459f5f83018461457d565b92915050565b6145ae81613fca565b82525050565b6145bd81614000565b82525050565b5f60a0820190506145d65f8301886145a5565b6145e360208301876145b4565b81810360408301526145f58186613dfc565b905081810360608301526146098185613dfc565b90506146186080830184613d82565b9695505050505050565b61462b81613d77565b8114614635575f80fd5b50565b5f8135905061464681614622565b92915050565b5f806040838503121561466257614661613c39565b5b5f61466f85828601613e6a565b925050602061468085828601614638565b9150509250929050565b5f805f805f608086880312156146a3576146a2613c39565b5b5f6146b088828901613e6a565b95505060206146c188828901613c60565b945050604086013567ffffffffffffffff8111156146e2576146e1613c3d565b5b6146ee88828901613ec8565b935093505060606147018882890161413e565b9150509295509295909350565b614717816142ef565b82525050565b5f6040820190506147305f83018561470e565b61473d60208301846145a5565b9392505050565b5f805f806080858703121561475c5761475b613c39565b5b5f61476987828801613e6a565b945050602061477a87828801613e6a565b935050604061478b87828801613c60565b925050606085013567ffffffffffffffff8111156147ac576147ab613c3d565b5b6147b887828801614465565b91505092959194509250565b5f81519050919050565b5f82825260208201905092915050565b5f6147e8826147c4565b6147f281856147ce565b9350614802818560208601613dc4565b61480b81613dec565b840191505092915050565b5f6020820190508181035f83015261482e81846147de565b905092915050565b5f806040838503121561484c5761484b613c39565b5b5f61485985828601613e6a565b925050602061486a85828601613e6a565b9150509250929050565b5f806020838503121561488a57614889613c39565b5b5f83013567ffffffffffffffff8111156148a7576148a6613c3d565b5b6148b385828601613ec8565b92509250509250929050565b5f602082840312156148d4576148d3613c39565b5b5f6148e18482850161413e565b91505092915050565b5f60c0820190506148fd5f830189613ccf565b61490a602083018861457d565b61491760408301876145b4565b61492460608301866144ec565b81810360808301526149368185613dfc565b905061494560a083018461457d565b979650505050505050565b7f4e487b71000000000000000000000000000000000000000000000000000000005f52602260045260245ffd5b5f600282049050600182168061499457607f821691505b6020821081036149a7576149a6614950565b5b50919050565b7f6e6f74206f776e657200000000000000000000000000000000000000000000005f82015250565b5f6149e1600983613db4565b91506149ec826149ad565b602082019050919050565b5f6020820190508181035f830152614a0e816149d5565b9050919050565b5f606082019050614a285f830186613ccf565b614a35602083018561457d565b614a426040830184613ccf565b949350505050565b7f6167656e74206e6f7420666f756e6400000000000000000000000000000000005f82015250565b5f614a7e600f83613db4565b9150614a8982614a4a565b602082019050919050565b5f6020820190508181035f830152614aab81614a72565b9050919050565b5f819050815f5260205f209050919050565b5f6020601f8301049050919050565b5f82821b905092915050565b5f60088302614b0e7fffffffffffffffffffffffffffffffffffffffffffffffffffffffffffffffff82614ad3565b614b188683614ad3565b95508019841693508086168417925050509392505050565b5f819050919050565b5f614b53614b4e614b4984613c41565b614b30565b613c41565b9050919050565b5f819050919050565b614b6c83614b39565b614b80614b7882614b5a565b848454614adf565b825550505050565b5f90565b614b94614b88565b614b9f818484614b63565b505050565b5b81811015614bc257614bb75f82614b8c565b600181019050614ba5565b5050565b601f821115614c0757614bd881614ab2565b614be184614ac4565b81016020851015614bf0578190505b614c04614bfc85614ac4565b830182614ba4565b50505b505050565b5f82821c905092915050565b5f614c275f1984600802614c0c565b1980831691505092915050565b5f614c3f8383614c18565b9150826002028217905092915050565b614c5882613daa565b67ffffffffffffffff811115614c7157614c7061436e565b5b614c7b825461497d565b614c86828285614bc6565b5f60209050601f831160018114614cb7575f8415614ca5578287015190505b614caf8582614c34565b865550614d16565b601f198416614cc586614ab2565b5f5b82811015614cec57848901518255600182019150602085019450602081019050614cc7565b86831015614d095784890151614d05601f891682614c18565b8355505b6001600288020188555050505b505050505050565b5f81905092915050565b5f614d338385614d1e565b9350614d40838584614416565b82840190509392505050565b5f614d58828486614d28565b91508190509392505050565b5f614d6f8385613db4565b9350614d7c838584614416565b614d8583613dec565b840190509392505050565b5f608082019050614da35f83018861470e565b614db060208301876145a5565b614dbd60408301866145b4565b8181036060830152614dd0818486614d64565b90509695505050505050565b7f6e6f742061737369676e65642076616c696461746f72000000000000000000005f82015250565b5f614e10601683613db4565b9150614e1b82614ddc565b602082019050919050565b5f6020820190508181035f830152614e3d81614e04565b9050919050565b7f73656c662d76616c69646174696f6e206e6f7420616c6c6f77656400000000005f82015250565b5f614e78601b83613db4565b9150614e8382614e44565b602082019050919050565b5f6020820190508181035f830152614ea581614e6c565b9050919050565b5f604082019050614ebf5f8301866145b4565b8181036020830152614ed2818486614d64565b9050949350505050565b5f82905092915050565b5f819050815f5260205f209050919050565b601f821115614f3957614f0a81614ee6565b614f1384614ac4565b81016020851015614f22578190505b614f36614f2e85614ac4565b830182614ba4565b50505b505050565b614f488383614edc565b67ffffffffffffffff811115614f6157614f6061436e565b5b614f6b825461497d565b614f76828285614ef8565b5f601f831160018114614fa3575f8415614f91578287013590505b614f9b8582614c34565b865550615002565b601f198416614fb186614ee6565b5f5b82811015614fd857848901358255600182019150602085019450602081019050614fb3565b86831015614ff55784890135614ff1601f891682614c18565b8355505b6001600288020188555050505b50505050505050565b5f6020820190508181035f830152615024818486614d64565b90509392505050565b7f4e487b71000000000000000000000000000000000000000000000000000000005f52603260045260245ffd5b7f6e6f7420666565646261636b20617574686f72000000000000000000000000005f82015250565b5f61508e601383613db4565b91506150998261505a565b602082019050919050565b5f6020820190508181035f8301526150bb81615082565b9050919050565b5f6020820190506150d55f83018461470e565b92915050565b5f819050919050565b5f6150fe6150f96150f4846150db565b614b30565b6142ef565b9050919050565b61510e816150e4565b82525050565b5f6020820190506151275f830184615105565b92915050565b7f6861736820616c726561647920757365640000000000000000000000000000005f82015250565b5f615161601183613db4565b915061516c8261512d565b602082019050919050565b5f6020820190508181035f83015261518e81615155565b9050919050565b7f4e487b71000000000000000000000000000000000000000000000000000000005f52601160045260245ffd5b5f6151cc826142ef565b915067ffffffffffffffff82036151e6576151e5615195565b5b600182019050919050565b5f6151fb82613fca565b915061520683613fca565b925082820190507fffffffffffffffffffffffffffffffff8000000000000000000000000000000081126f7fffffffffffffffffffffffffffffff8213171561525257615251615195565b5b92915050565b5f61526282613daa565b61526c8185614d1e565b935061527c818560208601613dc4565b80840191505092915050565b5f6152938285615258565b915061529f8284615258565b91508190509392505050565b5f6152b582613c41565b91507fffffffffffffffffffffffffffffffffffffffffffffffffffffffffffffffff82036152e7576152e6615195565b5b600182019050919050565b5f6040820190506153055f83018661457d565b8181036020830152615318818486614d64565b9050949350505050565b5f8151905061533081614128565b92915050565b5f6020828403121561534b5761534a613c39565b5b5f61535884828501615322565b91505092915050565b5f6080820190506153745f830187613ccf565b6153816020830186613ccf565b61538e604083018561457d565b81810360608301526153a081846147de565b905095945050505050565b5f815190506153b981613d22565b92915050565b5f602082840312156153d4576153d3613c39565b5b5f6153e1848285016153ab565b91505092915050565b7f4e487b71000000000000000000000000000000000000000000000000000000005f52601260045260245ffd5b5f60408201905061542a5f830185613ccf565b615437602083018461457d565b939250505056fea264697066735822122028d34b570f40034b2fe8caf405683f259e1037d803abb69f1c34459cc0173f5464736f6c63430008180033",
  "linkReferences": {},
  "deployedLinkReferences": {}
}